{
  "_format": "hh-sol-artifact-1",
  "contractName": "Marketplace",
  "sourceName": "contracts/Marketplace.sol",
  "abi": [
    {
      "inputs": [],
      "stateMutability": "nonpayable",
      "type": "constructor"
    },
    {
      "inputs": [],
      "name": "ECDSAInvalidSignature",
      "type": "error"
    },
    {
      "inputs": [
        {
          "internalType": "uint256",
          "name": "length",
          "type": "uint256"
        }
      ],
      "name": "ECDSAInvalidSignatureLength",
      "type": "error"
    },
    {
      "inputs": [
        {
          "internalType": "bytes32",
          "name": "s",
          "type": "bytes32"
        }
      ],
      "name": "ECDSAInvalidSignatureS",
      "type": "error"
    },
    {
      "inputs": [],
      "name": "InvalidShortString",
      "type": "error"
    },
    {
      "inputs": [
        {
          "internalType": "address",
          "name": "owner",
          "type": "address"
        }
      ],
      "name": "OwnableInvalidOwner",
      "type": "error"
    },
    {
      "inputs": [
        {
          "internalType": "address",
          "name": "account",
          "type": "address"
        }
      ],
      "name": "OwnableUnauthorizedAccount",
      "type": "error"
    },
    {
      "inputs": [
        {
          "internalType": "string",
          "name": "str",
          "type": "string"
        }
      ],
      "name": "StringTooLong",
      "type": "error"
    },
    {
      "anonymous": false,
      "inputs": [],
      "name": "EIP712DomainChanged",
      "type": "event"
    },
    {
      "anonymous": false,
      "inputs": [
        {
          "indexed": true,
          "internalType": "address",
          "name": "seller",
          "type": "address"
        },
        {
          "indexed": false,
          "internalType": "uint256",
          "name": "amount",
          "type": "uint256"
        }
      ],
      "name": "FundsWithdrawn",
      "type": "event"
    },
    {
      "anonymous": false,
      "inputs": [
        {
          "indexed": true,
          "internalType": "uint256",
          "name": "listingId",
          "type": "uint256"
        },
        {
          "indexed": true,
          "internalType": "address",
          "name": "seller",
          "type": "address"
        },
        {
          "indexed": false,
          "internalType": "address",
          "name": "token",
          "type": "address"
        },
        {
          "indexed": false,
          "internalType": "uint256",
          "name": "amount",
          "type": "uint256"
        },
        {
          "indexed": false,
          "internalType": "uint256",
          "name": "price",
          "type": "uint256"
        }
      ],
      "name": "ItemListed",
      "type": "event"
    },
    {
      "anonymous": false,
      "inputs": [
        {
          "indexed": true,
          "internalType": "uint256",
          "name": "listingId",
          "type": "uint256"
        },
        {
          "indexed": true,
          "internalType": "address",
          "name": "buyer",
          "type": "address"
        },
        {
          "indexed": false,
          "internalType": "address",
          "name": "seller",
          "type": "address"
        },
        {
          "indexed": false,
          "internalType": "address",
          "name": "token",
          "type": "address"
        },
        {
          "indexed": false,
          "internalType": "uint256",
          "name": "amount",
          "type": "uint256"
        }
      ],
      "name": "ItemPurchased",
      "type": "event"
    },
    {
      "anonymous": false,
      "inputs": [
        {
          "indexed": true,
          "internalType": "address",
          "name": "previousOwner",
          "type": "address"
        },
        {
          "indexed": true,
          "internalType": "address",
          "name": "newOwner",
          "type": "address"
        }
      ],
      "name": "OwnershipTransferred",
      "type": "event"
    },
    {
      "inputs": [
        {
          "internalType": "address",
          "name": "participant",
          "type": "address"
        },
        {
          "internalType": "uint256",
          "name": "nonce",
          "type": "uint256"
        },
        {
          "internalType": "uint256",
          "name": "deadline",
          "type": "uint256"
        },
        {
          "internalType": "bytes",
          "name": "signature",
          "type": "bytes"
        }
      ],
      "name": "authorizeWithSignature",
      "outputs": [
        {
          "internalType": "bool",
          "name": "",
          "type": "bool"
        }
      ],
      "stateMutability": "view",
      "type": "function"
    },
    {
      "inputs": [],
      "name": "eip712Domain",
      "outputs": [
        {
          "internalType": "bytes1",
          "name": "fields",
          "type": "bytes1"
        },
        {
          "internalType": "string",
          "name": "name",
          "type": "string"
        },
        {
          "internalType": "string",
          "name": "version",
          "type": "string"
        },
        {
          "internalType": "uint256",
          "name": "chainId",
          "type": "uint256"
        },
        {
          "internalType": "address",
          "name": "verifyingContract",
          "type": "address"
        },
        {
          "internalType": "bytes32",
          "name": "salt",
          "type": "bytes32"
        },
        {
          "internalType": "uint256[]",
          "name": "extensions",
          "type": "uint256[]"
        }
      ],
      "stateMutability": "view",
      "type": "function"
    },
    {
      "inputs": [
        {
          "internalType": "address",
          "name": "token",
          "type": "address"
        },
        {
          "internalType": "uint256",
          "name": "amount",
          "type": "uint256"
        },
        {
          "internalType": "uint256",
          "name": "price",
          "type": "uint256"
        }
      ],
      "name": "listItem",
      "outputs": [],
      "stateMutability": "nonpayable",
      "type": "function"
    },
    {
      "inputs": [],
      "name": "listingCount",
      "outputs": [
        {
          "internalType": "uint256",
          "name": "",
          "type": "uint256"
        }
      ],
      "stateMutability": "view",
      "type": "function"
    },
    {
      "inputs": [
        {
          "internalType": "uint256",
          "name": "",
          "type": "uint256"
        }
      ],
      "name": "listings",
      "outputs": [
        {
          "internalType": "address",
          "name": "seller",
          "type": "address"
        },
        {
          "internalType": "address",
          "name": "token",
          "type": "address"
        },
        {
          "internalType": "uint256",
          "name": "amount",
          "type": "uint256"
        },
        {
          "internalType": "uint256",
          "name": "price",
          "type": "uint256"
        },
        {
          "internalType": "bool",
          "name": "active",
          "type": "bool"
        }
      ],
      "stateMutability": "view",
      "type": "function"
    },
    {
      "inputs": [],
      "name": "owner",
      "outputs": [
        {
          "internalType": "address",
          "name": "",
          "type": "address"
        }
      ],
      "stateMutability": "view",
      "type": "function"
    },
    {
      "inputs": [
        {
          "internalType": "uint256",
          "name": "listingId",
          "type": "uint256"
        }
      ],
      "name": "purchaseItem",
      "outputs": [],
      "stateMutability": "payable",
      "type": "function"
    },
    {
      "inputs": [],
      "name": "renounceOwnership",
      "outputs": [],
      "stateMutability": "nonpayable",
      "type": "function"
    },
    {
      "inputs": [
        {
          "internalType": "address",
          "name": "",
          "type": "address"
        }
      ],
      "name": "sellerEarnings",
      "outputs": [
        {
          "internalType": "uint256",
          "name": "",
          "type": "uint256"
        }
      ],
      "stateMutability": "view",
      "type": "function"
    },
    {
      "inputs": [
        {
          "internalType": "address",
          "name": "newOwner",
          "type": "address"
        }
      ],
      "name": "transferOwnership",
      "outputs": [],
      "stateMutability": "nonpayable",
      "type": "function"
    },
    {
      "inputs": [],
      "name": "withdrawFunds",
      "outputs": [],
      "stateMutability": "nonpayable",
      "type": "function"
    }
  ],
  "bytecode": "0x61016060405234801561001157600080fd5b506040518060400160405280600b81526020017f4d61726b6574706c6163650000000000000000000000000000000000000000008152506040518060400160405280600181526020017f310000000000000000000000000000000000000000000000000000000000000081525033600073ffffffffffffffffffffffffffffffffffffffff168173ffffffffffffffffffffffffffffffffffffffff16036100f15760006040517f1e4fbdf70000000000000000000000000000000000000000000000000000000081526004016100e891906103d2565b60405180910390fd5b610100816101b060201b60201c565b5061011560018361027460201b90919060201c565b610120818152505061013160028261027460201b90919060201c565b6101408181525050818051906020012060e08181525050808051906020012061010081815250504660a0818152505061016e6102c460201b60201c565b608081815250503073ffffffffffffffffffffffffffffffffffffffff1660c08173ffffffffffffffffffffffffffffffffffffffff168152505050506108c8565b60008060009054906101000a900473ffffffffffffffffffffffffffffffffffffffff169050816000806101000a81548173ffffffffffffffffffffffffffffffffffffffff021916908373ffffffffffffffffffffffffffffffffffffffff1602179055508173ffffffffffffffffffffffffffffffffffffffff168173ffffffffffffffffffffffffffffffffffffffff167f8be0079c531659141344cd1fd0a4f28419497f9722a3daafe3b4186f6b6457e060405160405180910390a35050565b60006020835110156102965761028f8361031f60201b60201c565b90506102be565b826102a68361038760201b60201c565b60000190816102b5919061063d565b5060ff60001b90505b92915050565b60007f8b73c3c69bb8fe3d512ecc4cf759cc79239f7b179b0ffacaa9a75d522b39400f60e051610100514630604051602001610304959493929190610737565b60405160208183030381529060405280519060200120905090565b600080829050601f8151111561036c57826040517f305a27a9000000000000000000000000000000000000000000000000000000008152600401610363919061080f565b60405180910390fd5b80518161037890610861565b60001c1760001b915050919050565b6000819050919050565b600073ffffffffffffffffffffffffffffffffffffffff82169050919050565b60006103bc82610391565b9050919050565b6103cc816103b1565b82525050565b60006020820190506103e760008301846103c3565b92915050565b600081519050919050565b7f4e487b7100000000000000000000000000000000000000000000000000000000600052604160045260246000fd5b7f4e487b7100000000000000000000000000000000000000000000000000000000600052602260045260246000fd5b6000600282049050600182168061046e57607f821691505b60208210810361048157610480610427565b5b50919050565b60008190508160005260206000209050919050565b60006020601f8301049050919050565b600082821b905092915050565b6000600883026104e97fffffffffffffffffffffffffffffffffffffffffffffffffffffffffffffffff826104ac565b6104f386836104ac565b95508019841693508086168417925050509392505050565b6000819050919050565b6000819050919050565b600061053a6105356105308461050b565b610515565b61050b565b9050919050565b6000819050919050565b6105548361051f565b61056861056082610541565b8484546104b9565b825550505050565b600090565b61057d610570565b61058881848461054b565b505050565b5b818110156105ac576105a1600082610575565b60018101905061058e565b5050565b601f8211156105f1576105c281610487565b6105cb8461049c565b810160208510156105da578190505b6105ee6105e68561049c565b83018261058d565b50505b505050565b600082821c905092915050565b6000610614600019846008026105f6565b1980831691505092915050565b600061062d8383610603565b9150826002028217905092915050565b610646826103ed565b67ffffffffffffffff81111561065f5761065e6103f8565b5b6106698254610456565b6106748282856105b0565b600060209050601f8311600181146106a75760008415610695578287015190505b61069f8582610621565b865550610707565b601f1984166106b586610487565b60005b828110156106dd578489015182556001820191506020850194506020810190506106b8565b868310156106fa57848901516106f6601f891682610603565b8355505b6001600288020188555050505b505050505050565b6000819050919050565b6107228161070f565b82525050565b6107318161050b565b82525050565b600060a08201905061074c6000830188610719565b6107596020830187610719565b6107666040830186610719565b6107736060830185610728565b61078060808301846103c3565b9695505050505050565b600082825260208201905092915050565b60005b838110156107b957808201518184015260208101905061079e565b60008484015250505050565b6000601f19601f8301169050919050565b60006107e1826103ed565b6107eb818561078a565b93506107fb81856020860161079b565b610804816107c5565b840191505092915050565b6000602082019050818103600083015261082981846107d6565b905092915050565b600081519050919050565b6000819050602082019050919050565b6000610858825161070f565b80915050919050565b600061086c82610831565b826108768461083c565b90506108818161084c565b925060208210156108c1576108bc7fffffffffffffffffffffffffffffffffffffffffffffffffffffffffffffffff836020036008026104ac565b831692505b5050919050565b60805160a05160c05160e0516101005161012051610140516120a36109226000396000610df501526000610dba015260006112970152600061127601526000610f2901526000610f7f01526000610fa801526120a36000f3fe60806040526004361061009c5760003560e01c80638b012358116100645780638b012358146101665780638da5cb5b146101a3578063a9b07c26146101ce578063d38ea5bf146101f9578063de74e57b14610215578063f2fde38b146102565761009c565b806324600fc3146100a15780635970fc85146100b8578063715018a6146100f557806384b0196e1461010c57806389bfd38f1461013d575b600080fd5b3480156100ad57600080fd5b506100b661027f565b005b3480156100c457600080fd5b506100df60048036038101906100da9190611619565b6103e3565b6040516100ec91906116b7565b60405180910390f35b34801561010157600080fd5b5061010a61047f565b005b34801561011857600080fd5b50610121610493565b6040516101349796959493929190611881565b60405180910390f35b34801561014957600080fd5b50610164600480360381019061015f9190611905565b61053d565b005b34801561017257600080fd5b5061018d60048036038101906101889190611958565b61079e565b60405161019a9190611985565b60405180910390f35b3480156101af57600080fd5b506101b86107b6565b6040516101c591906119a0565b60405180910390f35b3480156101da57600080fd5b506101e36107df565b6040516101f09190611985565b60405180910390f35b610213600480360381019061020e91906119bb565b6107e5565b005b34801561022157600080fd5b5061023c600480360381019061023791906119bb565b610ab7565b60405161024d9594939291906119e8565b60405180910390f35b34801561026257600080fd5b5061027d60048036038101906102789190611958565b610b3a565b005b6000600560003373ffffffffffffffffffffffffffffffffffffffff1673ffffffffffffffffffffffffffffffffffffffff16815260200190815260200160002054905060008111610306576040517f08c379a00000000000000000000000000000000000000000000000000000000081526004016102fd90611a87565b60405180910390fd5b6000600560003373ffffffffffffffffffffffffffffffffffffffff1673ffffffffffffffffffffffffffffffffffffffff168152602001908152602001600020819055503373ffffffffffffffffffffffffffffffffffffffff166108fc829081150290604051600060405180830381858888f19350505050158015610391573d6000803e3d6000fd5b503373ffffffffffffffffffffffffffffffffffffffff167feaff4b37086828766ad3268786972c0cd24259d4c87a80f9d3963a3c3d999b0d826040516103d89190611985565b60405180910390a250565b600082421115610428576040517f08c379a000000000000000000000000000000000000000000000000000000000815260040161041f90611af3565b60405180910390fd5b61043485858585610bc0565b610473576040517f08c379a000000000000000000000000000000000000000000000000000000000815260040161046a90611b5f565b60405180910390fd5b60019050949350505050565b610487610c66565b6104916000610ced565b565b6000606080600080600060606104a7610db1565b6104af610dec565b46306000801b600067ffffffffffffffff8111156104d0576104cf6114ee565b5b6040519080825280602002602001820160405280156104fe5781602001602082028036833780820191505090505b507f0f00000000000000000000000000000000000000000000000000000000000000959493929190965096509650965096509650965090919293949596565b8273ffffffffffffffffffffffffffffffffffffffff166323b872dd3330856040518463ffffffff1660e01b815260040161057a93929190611b7f565b6020604051808303816000875af1158015610599573d6000803e3d6000fd5b505050506040513d601f19601f820116820180604052508101906105bd9190611be2565b6105fc576040517f08c379a00000000000000000000000000000000000000000000000000000000081526004016105f390611c5b565b60405180910390fd5b6040518060a001604052803373ffffffffffffffffffffffffffffffffffffffff1681526020018473ffffffffffffffffffffffffffffffffffffffff1681526020018381526020018281526020016001151581525060036000600454815260200190815260200160002060008201518160000160006101000a81548173ffffffffffffffffffffffffffffffffffffffff021916908373ffffffffffffffffffffffffffffffffffffffff16021790555060208201518160010160006101000a81548173ffffffffffffffffffffffffffffffffffffffff021916908373ffffffffffffffffffffffffffffffffffffffff160217905550604082015181600201556060820151816003015560808201518160040160006101000a81548160ff0219169083151502179055509050503373ffffffffffffffffffffffffffffffffffffffff166004547f424b3284a7958bb7965c27ca0b2a8b30ce2a56ba954533df15e6bded1b608ed785858560405161077993929190611c7b565b60405180910390a36004600081548092919061079490611ce1565b9190505550505050565b60056020528060005260406000206000915090505481565b60008060009054906101000a900473ffffffffffffffffffffffffffffffffffffffff16905090565b60045481565b60006003600083815260200190815260200160002090508060040160009054906101000a900460ff1661084d576040517f08c379a000000000000000000000000000000000000000000000000000000000815260040161084490611d75565b60405180910390fd5b8060030154341015610894576040517f08c379a000000000000000000000000000000000000000000000000000000000815260040161088b90611de1565b60405180910390fd5b60008160040160006101000a81548160ff0219169083151502179055508060010160009054906101000a900473ffffffffffffffffffffffffffffffffffffffff1673ffffffffffffffffffffffffffffffffffffffff1663a9059cbb3383600201546040518363ffffffff1660e01b8152600401610914929190611e01565b6020604051808303816000875af1158015610933573d6000803e3d6000fd5b505050506040513d601f19601f820116820180604052508101906109579190611be2565b610996576040517f08c379a000000000000000000000000000000000000000000000000000000000815260040161098d90611e76565b60405180910390fd5b8060030154600560008360000160009054906101000a900473ffffffffffffffffffffffffffffffffffffffff1673ffffffffffffffffffffffffffffffffffffffff1673ffffffffffffffffffffffffffffffffffffffff1681526020019081526020016000206000828254610a0d9190611e96565b925050819055503373ffffffffffffffffffffffffffffffffffffffff16827f6deea9734d7d5a255e86784c560121da652a9d4fb6e541b1a13850052a841c458360000160009054906101000a900473ffffffffffffffffffffffffffffffffffffffff168460010160009054906101000a900473ffffffffffffffffffffffffffffffffffffffff168560020154604051610aab93929190611b7f565b60405180910390a35050565b60036020528060005260406000206000915090508060000160009054906101000a900473ffffffffffffffffffffffffffffffffffffffff16908060010160009054906101000a900473ffffffffffffffffffffffffffffffffffffffff16908060020154908060030154908060040160009054906101000a900460ff16905085565b610b42610c66565b600073ffffffffffffffffffffffffffffffffffffffff168173ffffffffffffffffffffffffffffffffffffffff1603610bb45760006040517f1e4fbdf7000000000000000000000000000000000000000000000000000000008152600401610bab91906119a0565b60405180910390fd5b610bbd81610ced565b50565b600080610c187fbf8f52cebf755ed40592b73010bc11e53d3f50fff80b0188010a2ffb7d51b5d5878787604051602001610bfd9493929190611eca565b60405160208183030381529060405280519060200120610e27565b90508573ffffffffffffffffffffffffffffffffffffffff16610c448483610e4190919063ffffffff16565b73ffffffffffffffffffffffffffffffffffffffff1614915050949350505050565b610c6e610e6d565b73ffffffffffffffffffffffffffffffffffffffff16610c8c6107b6565b73ffffffffffffffffffffffffffffffffffffffff1614610ceb57610caf610e6d565b6040517f118cdaa7000000000000000000000000000000000000000000000000000000008152600401610ce291906119a0565b60405180910390fd5b565b60008060009054906101000a900473ffffffffffffffffffffffffffffffffffffffff169050816000806101000a81548173ffffffffffffffffffffffffffffffffffffffff021916908373ffffffffffffffffffffffffffffffffffffffff1602179055508173ffffffffffffffffffffffffffffffffffffffff168173ffffffffffffffffffffffffffffffffffffffff167f8be0079c531659141344cd1fd0a4f28419497f9722a3daafe3b4186f6b6457e060405160405180910390a35050565b6060610de760017f0000000000000000000000000000000000000000000000000000000000000000610e7590919063ffffffff16565b905090565b6060610e2260027f0000000000000000000000000000000000000000000000000000000000000000610e7590919063ffffffff16565b905090565b6000610e3a610e34610f25565b83610fdc565b9050919050565b600080600080610e51868661101d565b925092509250610e618282611079565b82935050505092915050565b600033905090565b606060ff60001b8314610e9257610e8b836111dd565b9050610f1f565b818054610e9e90611f3e565b80601f0160208091040260200160405190810160405280929190818152602001828054610eca90611f3e565b8015610f175780601f10610eec57610100808354040283529160200191610f17565b820191906000526020600020905b815481529060010190602001808311610efa57829003601f168201915b505050505090505b92915050565b60007f000000000000000000000000000000000000000000000000000000000000000073ffffffffffffffffffffffffffffffffffffffff163073ffffffffffffffffffffffffffffffffffffffff16148015610fa157507f000000000000000000000000000000000000000000000000000000000000000046145b15610fce577f00000000000000000000000000000000000000000000000000000000000000009050610fd9565b610fd6611251565b90505b90565b60006040517f190100000000000000000000000000000000000000000000000000000000000081528360028201528260228201526042812091505092915050565b600080600060418451036110625760008060006020870151925060408701519150606087015160001a9050611054888285856112e7565b955095509550505050611072565b60006002855160001b9250925092505b9250925092565b6000600381111561108d5761108c611f6f565b5b8260038111156110a05761109f611f6f565b5b03156111d957600160038111156110ba576110b9611f6f565b5b8260038111156110cd576110cc611f6f565b5b03611104576040517ff645eedf00000000000000000000000000000000000000000000000000000000815260040160405180910390fd5b6002600381111561111857611117611f6f565b5b82600381111561112b5761112a611f6f565b5b03611170578060001c6040517ffce698f70000000000000000000000000000000000000000000000000000000081526004016111679190611985565b60405180910390fd5b60038081111561118357611182611f6f565b5b82600381111561119657611195611f6f565b5b036111d857806040517fd78bce0c0000000000000000000000000000000000000000000000000000000081526004016111cf9190611f9e565b60405180910390fd5b5b5050565b606060006111ea836113db565b90506000602067ffffffffffffffff811115611209576112086114ee565b5b6040519080825280601f01601f19166020018201604052801561123b5781602001600182028036833780820191505090505b5090508181528360208201528092505050919050565b60007f8b73c3c69bb8fe3d512ecc4cf759cc79239f7b179b0ffacaa9a75d522b39400f7f00000000000000000000000000000000000000000000000000000000000000007f000000000000000000000000000000000000000000000000000000000000000046306040516020016112cc959493929190611fb9565b60405160208183030381529060405280519060200120905090565b60008060007f7fffffffffffffffffffffffffffffff5d576e7357a4501ddfe92f46681b20a08460001c11156113275760006003859250925092506113d1565b60006001888888886040516000815260200160405260405161134c9493929190612028565b6020604051602081039080840390855afa15801561136e573d6000803e3d6000fd5b505050602060405103519050600073ffffffffffffffffffffffffffffffffffffffff168173ffffffffffffffffffffffffffffffffffffffff16036113c257600060016000801b935093509350506113d1565b8060008060001b935093509350505b9450945094915050565b60008060ff8360001c169050601f811115611422576040517fb3512b0c00000000000000000000000000000000000000000000000000000000815260040160405180910390fd5b80915050919050565b6000604051905090565b600080fd5b600080fd5b600073ffffffffffffffffffffffffffffffffffffffff82169050919050565b600061146a8261143f565b9050919050565b61147a8161145f565b811461148557600080fd5b50565b60008135905061149781611471565b92915050565b6000819050919050565b6114b08161149d565b81146114bb57600080fd5b50565b6000813590506114cd816114a7565b92915050565b600080fd5b600080fd5b6000601f19601f8301169050919050565b7f4e487b7100000000000000000000000000000000000000000000000000000000600052604160045260246000fd5b611526826114dd565b810181811067ffffffffffffffff82111715611545576115446114ee565b5b80604052505050565b600061155861142b565b9050611564828261151d565b919050565b600067ffffffffffffffff821115611584576115836114ee565b5b61158d826114dd565b9050602081019050919050565b82818337600083830152505050565b60006115bc6115b784611569565b61154e565b9050828152602081018484840111156115d8576115d76114d8565b5b6115e384828561159a565b509392505050565b600082601f830112611600576115ff6114d3565b5b81356116108482602086016115a9565b91505092915050565b6000806000806080858703121561163357611632611435565b5b600061164187828801611488565b9450506020611652878288016114be565b9350506040611663878288016114be565b925050606085013567ffffffffffffffff8111156116845761168361143a565b5b611690878288016115eb565b91505092959194509250565b60008115159050919050565b6116b18161169c565b82525050565b60006020820190506116cc60008301846116a8565b92915050565b60007fff0000000000000000000000000000000000000000000000000000000000000082169050919050565b611707816116d2565b82525050565b600081519050919050565b600082825260208201905092915050565b60005b8381101561174757808201518184015260208101905061172c565b60008484015250505050565b600061175e8261170d565b6117688185611718565b9350611778818560208601611729565b611781816114dd565b840191505092915050565b6117958161149d565b82525050565b6117a48161145f565b82525050565b6000819050919050565b6117bd816117aa565b82525050565b600081519050919050565b600082825260208201905092915050565b6000819050602082019050919050565b6117f88161149d565b82525050565b600061180a83836117ef565b60208301905092915050565b6000602082019050919050565b600061182e826117c3565b61183881856117ce565b9350611843836117df565b8060005b8381101561187457815161185b88826117fe565b975061186683611816565b925050600181019050611847565b5085935050505092915050565b600060e082019050611896600083018a6116fe565b81810360208301526118a88189611753565b905081810360408301526118bc8188611753565b90506118cb606083018761178c565b6118d8608083018661179b565b6118e560a08301856117b4565b81810360c08301526118f78184611823565b905098975050505050505050565b60008060006060848603121561191e5761191d611435565b5b600061192c86828701611488565b935050602061193d868287016114be565b925050604061194e868287016114be565b9150509250925092565b60006020828403121561196e5761196d611435565b5b600061197c84828501611488565b91505092915050565b600060208201905061199a600083018461178c565b92915050565b60006020820190506119b5600083018461179b565b92915050565b6000602082840312156119d1576119d0611435565b5b60006119df848285016114be565b91505092915050565b600060a0820190506119fd600083018861179b565b611a0a602083018761179b565b611a17604083018661178c565b611a24606083018561178c565b611a3160808301846116a8565b9695505050505050565b7f4e6f2066756e647320746f207769746864726177000000000000000000000000600082015250565b6000611a71601483611718565b9150611a7c82611a3b565b602082019050919050565b60006020820190508181036000830152611aa081611a64565b9050919050565b7f5369676e61747572652065787069726564000000000000000000000000000000600082015250565b6000611add601183611718565b9150611ae882611aa7565b602082019050919050565b60006020820190508181036000830152611b0c81611ad0565b9050919050565b7f496e76616c6964207369676e6174757265000000000000000000000000000000600082015250565b6000611b49601183611718565b9150611b5482611b13565b602082019050919050565b60006020820190508181036000830152611b7881611b3c565b9050919050565b6000606082019050611b94600083018661179b565b611ba1602083018561179b565b611bae604083018461178c565b949350505050565b611bbf8161169c565b8114611bca57600080fd5b50565b600081519050611bdc81611bb6565b92915050565b600060208284031215611bf857611bf7611435565b5b6000611c0684828501611bcd565b91505092915050565b7f5472616e73666572206661696c65640000000000000000000000000000000000600082015250565b6000611c45600f83611718565b9150611c5082611c0f565b602082019050919050565b60006020820190508181036000830152611c7481611c38565b9050919050565b6000606082019050611c90600083018661179b565b611c9d602083018561178c565b611caa604083018461178c565b949350505050565b7f4e487b7100000000000000000000000000000000000000000000000000000000600052601160045260246000fd5b6000611cec8261149d565b91507fffffffffffffffffffffffffffffffffffffffffffffffffffffffffffffffff8203611d1e57611d1d611cb2565b5b600182019050919050565b7f4c697374696e6720696e61637469766500000000000000000000000000000000600082015250565b6000611d5f601083611718565b9150611d6a82611d29565b602082019050919050565b60006020820190508181036000830152611d8e81611d52565b9050919050565b7f496e73756666696369656e742045746865722073656e74000000000000000000600082015250565b6000611dcb601783611718565b9150611dd682611d95565b602082019050919050565b60006020820190508181036000830152611dfa81611dbe565b9050919050565b6000604082019050611e16600083018561179b565b611e23602083018461178c565b9392505050565b7f546f6b656e207472616e73666572206661696c65640000000000000000000000600082015250565b6000611e60601583611718565b9150611e6b82611e2a565b602082019050919050565b60006020820190508181036000830152611e8f81611e53565b9050919050565b6000611ea18261149d565b9150611eac8361149d565b9250828201905080821115611ec457611ec3611cb2565b5b92915050565b6000608082019050611edf60008301876117b4565b611eec602083018661179b565b611ef9604083018561178c565b611f06606083018461178c565b95945050505050565b7f4e487b7100000000000000000000000000000000000000000000000000000000600052602260045260246000fd5b60006002820490506001821680611f5657607f821691505b602082108103611f6957611f68611f0f565b5b50919050565b7f4e487b7100000000000000000000000000000000000000000000000000000000600052602160045260246000fd5b6000602082019050611fb360008301846117b4565b92915050565b600060a082019050611fce60008301886117b4565b611fdb60208301876117b4565b611fe860408301866117b4565b611ff5606083018561178c565b612002608083018461179b565b9695505050505050565b600060ff82169050919050565b6120228161200c565b82525050565b600060808201905061203d60008301876117b4565b61204a6020830186612019565b61205760408301856117b4565b61206460608301846117b4565b9594505050505056fea264697066735822122056d80470a6fa3c130aff33e17d65fdc86d1099e83a7bf5221a492b29adcfba6f64736f6c634300081c0033",
  "linkReferences": {},
  "deployedLinkReferences": {}
}