{
  "_format": "hh-sol-artifact-1",
  "contractName": "Marketplace",
  "sourceName": "contracts/Marketplace.sol",
  "abi": [
    {
      "inputs": [],
      "stateMutability": "nonpayable",
      "type": "constructor"
    },
    {
      "inputs": [],
      "name": "ECDSAInvalidSignature",
      "type": "error"
    },
    {
      "inputs": [
        {
          "internalType": "uint256",
          "name": "length",
          "type": "uint256"
        }
      ],
      "name": "ECDSAInvalidSignatureLength",
      "type": "error"
    },
    {
      "inputs": [
        {
          "internalType": "bytes32",
          "name": "s",
          "type": "bytes32"
        }
      ],
      "name": "ECDSAInvalidSignatureS",
      "type": "error"
    },
    {
      "inputs": [],
      "name": "InvalidShortString",
      "type": "error"
    },
    {
      "inputs": [
        {
          "internalType": "address",
          "name": "owner",
          "type": "address"
        }
      ],
      "name": "OwnableInvalidOwner",
      "type": "error"
    },
    {
      "inputs": [
        {
          "internalType": "address",
          "name": "account",
          "type": "address"
        }
      ],
      "name": "OwnableUnauthorizedAccount",
      "type": "error"
    },
    {
      "inputs": [
        {
          "internalType": "string",
          "name": "str",
          "type": "string"
        }
      ],
      "name": "StringTooLong",
      "type": "error"
    },
    {
      "anonymous": false,
      "inputs": [],
      "name": "EIP712DomainChanged",
      "type": "event"
    },
    {
      "anonymous": false,
      "inputs": [
        {
          "indexed": true,
          "internalType": "address",
          "name": "seller",
          "type": "address"
        },
        {
          "indexed": false,
          "internalType": "uint256",
          "name": "amount",
          "type": "uint256"
        }
      ],
      "name": "FundsWithdrawn",
      "type": "event"
    },
    {
      "anonymous": false,
      "inputs": [
        {
          "indexed": true,
          "internalType": "uint256",
          "name": "listingId",
          "type": "uint256"
        },
        {
          "indexed": true,
          "internalType": "address",
          "name": "seller",
          "type": "address"
        },
        {
          "indexed": false,
          "internalType": "address",
          "name": "token",
          "type": "address"
        },
        {
          "indexed": false,
          "internalType": "uint256",
          "name": "amount",
          "type": "uint256"
        },
        {
          "indexed": false,
          "internalType": "uint256",
          "name": "price",
          "type": "uint256"
        }
      ],
      "name": "ItemListed",
      "type": "event"
    },
    {
      "anonymous": false,
      "inputs": [
        {
          "indexed": true,
          "internalType": "uint256",
          "name": "listingId",
          "type": "uint256"
        },
        {
          "indexed": true,
          "internalType": "address",
          "name": "buyer",
          "type": "address"
        },
        {
          "indexed": false,
          "internalType": "address",
          "name": "seller",
          "type": "address"
        },
        {
          "indexed": false,
          "internalType": "address",
          "name": "token",
          "type": "address"
        },
        {
          "indexed": false,
          "internalType": "uint256",
          "name": "amount",
          "type": "uint256"
        }
      ],
      "name": "ItemPurchased",
      "type": "event"
    },
    {
      "anonymous": false,
      "inputs": [
        {
          "indexed": true,
          "internalType": "address",
          "name": "previousOwner",
          "type": "address"
        },
        {
          "indexed": true,
          "internalType": "address",
          "name": "newOwner",
          "type": "address"
        }
      ],
      "name": "OwnershipTransferred",
      "type": "event"
    },
    {
      "inputs": [
        {
          "internalType": "address",
          "name": "participant",
          "type": "address"
        },
        {
          "internalType": "bytes",
          "name": "signature",
          "type": "bytes"
        }
      ],
      "name": "authorizeWithSignature",
      "outputs": [
        {
          "internalType": "bool",
          "name": "",
          "type": "bool"
        }
      ],
      "stateMutability": "view",
      "type": "function"
    },
    {
      "inputs": [],
      "name": "eip712Domain",
      "outputs": [
        {
          "internalType": "bytes1",
          "name": "fields",
          "type": "bytes1"
        },
        {
          "internalType": "string",
          "name": "name",
          "type": "string"
        },
        {
          "internalType": "string",
          "name": "version",
          "type": "string"
        },
        {
          "internalType": "uint256",
          "name": "chainId",
          "type": "uint256"
        },
        {
          "internalType": "address",
          "name": "verifyingContract",
          "type": "address"
        },
        {
          "internalType": "bytes32",
          "name": "salt",
          "type": "bytes32"
        },
        {
          "internalType": "uint256[]",
          "name": "extensions",
          "type": "uint256[]"
        }
      ],
      "stateMutability": "view",
      "type": "function"
    },
    {
      "inputs": [],
      "name": "getListings",
      "outputs": [
        {
          "components": [
            {
              "internalType": "uint256",
              "name": "id",
              "type": "uint256"
            },
            {
              "internalType": "address",
              "name": "seller",
              "type": "address"
            },
            {
              "internalType": "address",
              "name": "token",
              "type": "address"
            },
            {
              "internalType": "uint256",
              "name": "amount",
              "type": "uint256"
            },
            {
              "internalType": "uint256",
              "name": "price",
              "type": "uint256"
            },
            {
              "internalType": "bool",
              "name": "active",
              "type": "bool"
            }
          ],
          "internalType": "struct Marketplace.Listing[]",
          "name": "",
          "type": "tuple[]"
        }
      ],
      "stateMutability": "view",
      "type": "function"
    },
    {
      "inputs": [
        {
          "internalType": "address",
          "name": "token",
          "type": "address"
        },
        {
          "internalType": "uint256",
          "name": "amount",
          "type": "uint256"
        },
        {
          "internalType": "uint256",
          "name": "price",
          "type": "uint256"
        },
        {
          "internalType": "bytes",
          "name": "signature",
          "type": "bytes"
        }
      ],
      "name": "listItem",
      "outputs": [],
      "stateMutability": "nonpayable",
      "type": "function"
    },
    {
      "inputs": [],
      "name": "listingCount",
      "outputs": [
        {
          "internalType": "uint256",
          "name": "",
          "type": "uint256"
        }
      ],
      "stateMutability": "view",
      "type": "function"
    },
    {
      "inputs": [
        {
          "internalType": "uint256",
          "name": "",
          "type": "uint256"
        }
      ],
      "name": "listings",
      "outputs": [
        {
          "internalType": "uint256",
          "name": "id",
          "type": "uint256"
        },
        {
          "internalType": "address",
          "name": "seller",
          "type": "address"
        },
        {
          "internalType": "address",
          "name": "token",
          "type": "address"
        },
        {
          "internalType": "uint256",
          "name": "amount",
          "type": "uint256"
        },
        {
          "internalType": "uint256",
          "name": "price",
          "type": "uint256"
        },
        {
          "internalType": "bool",
          "name": "active",
          "type": "bool"
        }
      ],
      "stateMutability": "view",
      "type": "function"
    },
    {
      "inputs": [],
      "name": "owner",
      "outputs": [
        {
          "internalType": "address",
          "name": "",
          "type": "address"
        }
      ],
      "stateMutability": "view",
      "type": "function"
    },
    {
      "inputs": [
        {
          "internalType": "uint256",
          "name": "listingId",
          "type": "uint256"
        },
        {
          "internalType": "bytes",
          "name": "signature",
          "type": "bytes"
        }
      ],
      "name": "purchaseItem",
      "outputs": [],
      "stateMutability": "payable",
      "type": "function"
    },
    {
      "inputs": [],
      "name": "renounceOwnership",
      "outputs": [],
      "stateMutability": "nonpayable",
      "type": "function"
    },
    {
      "inputs": [
        {
          "internalType": "address",
          "name": "",
          "type": "address"
        }
      ],
      "name": "sellerEarnings",
      "outputs": [
        {
          "internalType": "uint256",
          "name": "",
          "type": "uint256"
        }
      ],
      "stateMutability": "view",
      "type": "function"
    },
    {
      "inputs": [
        {
          "internalType": "address",
          "name": "newOwner",
          "type": "address"
        }
      ],
      "name": "transferOwnership",
      "outputs": [],
      "stateMutability": "nonpayable",
      "type": "function"
    },
    {
      "inputs": [
        {
          "internalType": "bytes",
          "name": "signature",
          "type": "bytes"
        }
      ],
      "name": "withdrawFunds",
      "outputs": [],
      "stateMutability": "nonpayable",
      "type": "function"
    }
  ],
  "bytecode": "0x61016060405234801561001157600080fd5b506040518060400160405280600b81526020017f4d61726b6574706c6163650000000000000000000000000000000000000000008152506040518060400160405280600181526020017f310000000000000000000000000000000000000000000000000000000000000081525033600073ffffffffffffffffffffffffffffffffffffffff168173ffffffffffffffffffffffffffffffffffffffff16036100f15760006040517f1e4fbdf70000000000000000000000000000000000000000000000000000000081526004016100e891906103d2565b60405180910390fd5b610100816101b060201b60201c565b5061011560018361027460201b90919060201c565b610120818152505061013160028261027460201b90919060201c565b6101408181525050818051906020012060e08181525050808051906020012061010081815250504660a0818152505061016e6102c460201b60201c565b608081815250503073ffffffffffffffffffffffffffffffffffffffff1660c08173ffffffffffffffffffffffffffffffffffffffff168152505050506108c8565b60008060009054906101000a900473ffffffffffffffffffffffffffffffffffffffff169050816000806101000a81548173ffffffffffffffffffffffffffffffffffffffff021916908373ffffffffffffffffffffffffffffffffffffffff1602179055508173ffffffffffffffffffffffffffffffffffffffff168173ffffffffffffffffffffffffffffffffffffffff167f8be0079c531659141344cd1fd0a4f28419497f9722a3daafe3b4186f6b6457e060405160405180910390a35050565b60006020835110156102965761028f8361031f60201b60201c565b90506102be565b826102a68361038760201b60201c565b60000190816102b5919061063d565b5060ff60001b90505b92915050565b60007f8b73c3c69bb8fe3d512ecc4cf759cc79239f7b179b0ffacaa9a75d522b39400f60e051610100514630604051602001610304959493929190610737565b60405160208183030381529060405280519060200120905090565b600080829050601f8151111561036c57826040517f305a27a9000000000000000000000000000000000000000000000000000000008152600401610363919061080f565b60405180910390fd5b80518161037890610861565b60001c1760001b915050919050565b6000819050919050565b600073ffffffffffffffffffffffffffffffffffffffff82169050919050565b60006103bc82610391565b9050919050565b6103cc816103b1565b82525050565b60006020820190506103e760008301846103c3565b92915050565b600081519050919050565b7f4e487b7100000000000000000000000000000000000000000000000000000000600052604160045260246000fd5b7f4e487b7100000000000000000000000000000000000000000000000000000000600052602260045260246000fd5b6000600282049050600182168061046e57607f821691505b60208210810361048157610480610427565b5b50919050565b60008190508160005260206000209050919050565b60006020601f8301049050919050565b600082821b905092915050565b6000600883026104e97fffffffffffffffffffffffffffffffffffffffffffffffffffffffffffffffff826104ac565b6104f386836104ac565b95508019841693508086168417925050509392505050565b6000819050919050565b6000819050919050565b600061053a6105356105308461050b565b610515565b61050b565b9050919050565b6000819050919050565b6105548361051f565b61056861056082610541565b8484546104b9565b825550505050565b600090565b61057d610570565b61058881848461054b565b505050565b5b818110156105ac576105a1600082610575565b60018101905061058e565b5050565b601f8211156105f1576105c281610487565b6105cb8461049c565b810160208510156105da578190505b6105ee6105e68561049c565b83018261058d565b50505b505050565b600082821c905092915050565b6000610614600019846008026105f6565b1980831691505092915050565b600061062d8383610603565b9150826002028217905092915050565b610646826103ed565b67ffffffffffffffff81111561065f5761065e6103f8565b5b6106698254610456565b6106748282856105b0565b600060209050601f8311600181146106a75760008415610695578287015190505b61069f8582610621565b865550610707565b601f1984166106b586610487565b60005b828110156106dd578489015182556001820191506020850194506020810190506106b8565b868310156106fa57848901516106f6601f891682610603565b8355505b6001600288020188555050505b505050505050565b6000819050919050565b6107228161070f565b82525050565b6107318161050b565b82525050565b600060a08201905061074c6000830188610719565b6107596020830187610719565b6107666040830186610719565b6107736060830185610728565b61078060808301846103c3565b9695505050505050565b600082825260208201905092915050565b60005b838110156107b957808201518184015260208101905061079e565b60008484015250505050565b6000601f19601f8301169050919050565b60006107e1826103ed565b6107eb818561078a565b93506107fb81856020860161079b565b610804816107c5565b840191505092915050565b6000602082019050818103600083015261082981846107d6565b905092915050565b600081519050919050565b6000819050602082019050919050565b6000610858825161070f565b80915050919050565b600061086c82610831565b826108768461083c565b90506108818161084c565b925060208210156108c1576108bc7fffffffffffffffffffffffffffffffffffffffffffffffffffffffffffffffff836020036008026104ac565b831692505b5050919050565b60805160a05160c05160e05161010051610120516101405161285061092260003960006112990152600061125e0152600061173b0152600061171a015260006113cd015260006114230152600061144c01526128506000f3fe6080604052600436106100a75760003560e01c8063a9a7a7e811610064578063a9a7a7e8146101a1578063a9b07c26146101ca578063c6f82a7a146101f5578063de74e57b14610232578063f1b2d6a314610274578063f2fde38b1461029f576100a7565b80632f359619146100ac5780633b56da69146100c8578063715018a6146100f157806384b0196e146101085780638b012358146101395780638da5cb5b14610176575b600080fd5b6100c660048036038101906100c19190611ac3565b6102c8565b005b3480156100d457600080fd5b506100ef60048036038101906100ea9190611b1f565b610672565b005b3480156100fd57600080fd5b50610106610820565b005b34801561011457600080fd5b5061011d610834565b6040516101309796959493929190611d49565b60405180910390f35b34801561014557600080fd5b50610160600480360381019061015b9190611df9565b6108de565b60405161016d9190611e26565b60405180910390f35b34801561018257600080fd5b5061018b6108f6565b6040516101989190611e41565b60405180910390f35b3480156101ad57600080fd5b506101c860048036038101906101c39190611e5c565b61091f565b005b3480156101d657600080fd5b506101df610bdc565b6040516101ec9190611e26565b60405180910390f35b34801561020157600080fd5b5061021c60048036038101906102179190611edf565b610be2565b6040516102299190611f56565b60405180910390f35b34801561023e57600080fd5b5061025960048036038101906102549190611f71565b610c37565b60405161026b96959493929190611f9e565b60405180910390f35b34801561028057600080fd5b50610289610cc0565b6040516102969190612147565b60405180910390f35b3480156102ab57600080fd5b506102c660048036038101906102c19190611df9565b610fab565b005b6102d23382611031565b610311576040517f08c379a0000000000000000000000000000000000000000000000000000000008152600401610308906121b5565b60405180910390fd5b61031a826110d1565b610359576040517f08c379a000000000000000000000000000000000000000000000000000000000815260040161035090612221565b60405180910390fd5b60006003600084815260200190815260200160002090508060050160009054906101000a900460ff166103c1576040517f08c379a00000000000000000000000000000000000000000000000000000000081526004016103b89061228d565b60405180910390fd5b80600401543414610407576040517f08c379a00000000000000000000000000000000000000000000000000000000081526004016103fe906122f9565b60405180910390fd5b806004015434101561044e576040517f08c379a000000000000000000000000000000000000000000000000000000000815260040161044590612365565b60405180910390fd5b60008160050160006101000a81548160ff0219169083151502179055508060020160009054906101000a900473ffffffffffffffffffffffffffffffffffffffff1673ffffffffffffffffffffffffffffffffffffffff1663a9059cbb3383600301546040518363ffffffff1660e01b81526004016104ce929190612385565b6020604051808303816000875af11580156104ed573d6000803e3d6000fd5b505050506040513d601f19601f8201168201806040525081019061051191906123da565b610550576040517f08c379a000000000000000000000000000000000000000000000000000000000815260040161054790612453565b60405180910390fd5b8060040154600560008360010160009054906101000a900473ffffffffffffffffffffffffffffffffffffffff1673ffffffffffffffffffffffffffffffffffffffff1673ffffffffffffffffffffffffffffffffffffffff16815260200190815260200160002060008282546105c791906124a2565b925050819055503373ffffffffffffffffffffffffffffffffffffffff16837f6deea9734d7d5a255e86784c560121da652a9d4fb6e541b1a13850052a841c458360010160009054906101000a900473ffffffffffffffffffffffffffffffffffffffff168460020160009054906101000a900473ffffffffffffffffffffffffffffffffffffffff168560030154604051610665939291906124d6565b60405180910390a3505050565b61067c3382611031565b6106bb576040517f08c379a00000000000000000000000000000000000000000000000000000000081526004016106b2906121b5565b60405180910390fd5b6000600560003373ffffffffffffffffffffffffffffffffffffffff1673ffffffffffffffffffffffffffffffffffffffff16815260200190815260200160002054905060008111610742576040517f08c379a000000000000000000000000000000000000000000000000000000000815260040161073990612559565b60405180910390fd5b6000600560003373ffffffffffffffffffffffffffffffffffffffff1673ffffffffffffffffffffffffffffffffffffffff168152602001908152602001600020819055503373ffffffffffffffffffffffffffffffffffffffff166108fc829081150290604051600060405180830381858888f193505050501580156107cd573d6000803e3d6000fd5b503373ffffffffffffffffffffffffffffffffffffffff167feaff4b37086828766ad3268786972c0cd24259d4c87a80f9d3963a3c3d999b0d826040516108149190611e26565b60405180910390a25050565b61082861110a565b6108326000611191565b565b600060608060008060006060610848611255565b610850611290565b46306000801b600067ffffffffffffffff81111561087157610870611998565b5b60405190808252806020026020018201604052801561089f5781602001602082028036833780820191505090505b507f0f00000000000000000000000000000000000000000000000000000000000000959493929190965096509650965096509650965090919293949596565b60056020528060005260406000206000915090505481565b60008060009054906101000a900473ffffffffffffffffffffffffffffffffffffffff16905090565b6109293382611031565b610968576040517f08c379a000000000000000000000000000000000000000000000000000000000815260040161095f906121b5565b60405180910390fd5b8373ffffffffffffffffffffffffffffffffffffffff166323b872dd3330866040518463ffffffff1660e01b81526004016109a5939291906124d6565b6020604051808303816000875af11580156109c4573d6000803e3d6000fd5b505050506040513d601f19601f820116820180604052508101906109e891906123da565b610a27576040517f08c379a0000000000000000000000000000000000000000000000000000000008152600401610a1e906125c5565b60405180910390fd5b6040518060c0016040528060045481526020013373ffffffffffffffffffffffffffffffffffffffff1681526020018573ffffffffffffffffffffffffffffffffffffffff168152602001848152602001838152602001600115158152506003600060045481526020019081526020016000206000820151816000015560208201518160010160006101000a81548173ffffffffffffffffffffffffffffffffffffffff021916908373ffffffffffffffffffffffffffffffffffffffff16021790555060408201518160020160006101000a81548173ffffffffffffffffffffffffffffffffffffffff021916908373ffffffffffffffffffffffffffffffffffffffff160217905550606082015181600301556080820151816004015560a08201518160050160006101000a81548160ff0219169083151502179055509050503373ffffffffffffffffffffffffffffffffffffffff166004547f424b3284a7958bb7965c27ca0b2a8b30ce2a56ba954533df15e6bded1b608ed7868686604051610bb6939291906125e5565b60405180910390a360046000815480929190610bd19061261c565b919050555050505050565b60045481565b6000610bee8383611031565b610c2d576040517f08c379a0000000000000000000000000000000000000000000000000000000008152600401610c24906121b5565b60405180910390fd5b6001905092915050565b60036020528060005260406000206000915090508060000154908060010160009054906101000a900473ffffffffffffffffffffffffffffffffffffffff16908060020160009054906101000a900473ffffffffffffffffffffffffffffffffffffffff16908060030154908060040154908060050160009054906101000a900460ff16905086565b6060600060045403610d2857600067ffffffffffffffff811115610ce757610ce6611998565b5b604051908082528060200260200182016040528015610d2057816020015b610d0d6118cf565b815260200190600190039081610d055790505b509050610fa8565b600060045467ffffffffffffffff811115610d4657610d45611998565b5b604051908082528060200260200182016040528015610d7f57816020015b610d6c6118cf565b815260200190600190039081610d645790505b5090506000805b600454811015610ef6576003600082815260200190815260200160002060050160009054906101000a900460ff1615610ee957600360008281526020019081526020016000206040518060c0016040529081600082015481526020016001820160009054906101000a900473ffffffffffffffffffffffffffffffffffffffff1673ffffffffffffffffffffffffffffffffffffffff1673ffffffffffffffffffffffffffffffffffffffff1681526020016002820160009054906101000a900473ffffffffffffffffffffffffffffffffffffffff1673ffffffffffffffffffffffffffffffffffffffff1673ffffffffffffffffffffffffffffffffffffffff16815260200160038201548152602001600482015481526020016005820160009054906101000a900460ff161515151581525050838381518110610ecf57610ece612664565b5b60200260200101819052508180610ee59061261c565b9250505b8080600101915050610d86565b5060008167ffffffffffffffff811115610f1357610f12611998565b5b604051908082528060200260200182016040528015610f4c57816020015b610f396118cf565b815260200190600190039081610f315790505b50905060005b82811015610fa057838181518110610f6d57610f6c612664565b5b6020026020010151828281518110610f8857610f87612664565b5b60200260200101819052508080600101915050610f52565b508093505050505b90565b610fb361110a565b600073ffffffffffffffffffffffffffffffffffffffff168173ffffffffffffffffffffffffffffffffffffffff16036110255760006040517f1e4fbdf700000000000000000000000000000000000000000000000000000000815260040161101c9190611e41565b60405180910390fd5b61102e81611191565b50565b6000806110857f93b9ee68d59779989af380b4a3a710890893468b597ef26691ac33ce8ca1dd338560405160200161106a929190612693565b604051602081830303815290604052805190602001206112cb565b90508373ffffffffffffffffffffffffffffffffffffffff166110b184836112e590919063ffffffff16565b73ffffffffffffffffffffffffffffffffffffffff161491505092915050565b6000806003600084815260200190815260200160002090506000816004015414158061110257506000816003015414155b915050919050565b611112611311565b73ffffffffffffffffffffffffffffffffffffffff166111306108f6565b73ffffffffffffffffffffffffffffffffffffffff161461118f57611153611311565b6040517f118cdaa70000000000000000000000000000000000000000000000000000000081526004016111869190611e41565b60405180910390fd5b565b60008060009054906101000a900473ffffffffffffffffffffffffffffffffffffffff169050816000806101000a81548173ffffffffffffffffffffffffffffffffffffffff021916908373ffffffffffffffffffffffffffffffffffffffff1602179055508173ffffffffffffffffffffffffffffffffffffffff168173ffffffffffffffffffffffffffffffffffffffff167f8be0079c531659141344cd1fd0a4f28419497f9722a3daafe3b4186f6b6457e060405160405180910390a35050565b606061128b60017f000000000000000000000000000000000000000000000000000000000000000061131990919063ffffffff16565b905090565b60606112c660027f000000000000000000000000000000000000000000000000000000000000000061131990919063ffffffff16565b905090565b60006112de6112d86113c9565b83611480565b9050919050565b6000806000806112f586866114c1565b925092509250611305828261151d565b82935050505092915050565b600033905090565b606060ff60001b83146113365761132f83611681565b90506113c3565b818054611342906126eb565b80601f016020809104026020016040519081016040528092919081815260200182805461136e906126eb565b80156113bb5780601f10611390576101008083540402835291602001916113bb565b820191906000526020600020905b81548152906001019060200180831161139e57829003601f168201915b505050505090505b92915050565b60007f000000000000000000000000000000000000000000000000000000000000000073ffffffffffffffffffffffffffffffffffffffff163073ffffffffffffffffffffffffffffffffffffffff1614801561144557507f000000000000000000000000000000000000000000000000000000000000000046145b15611472577f0000000000000000000000000000000000000000000000000000000000000000905061147d565b61147a6116f5565b90505b90565b60006040517f190100000000000000000000000000000000000000000000000000000000000081528360028201528260228201526042812091505092915050565b600080600060418451036115065760008060006020870151925060408701519150606087015160001a90506114f88882858561178b565b955095509550505050611516565b60006002855160001b9250925092505b9250925092565b600060038111156115315761153061271c565b5b8260038111156115445761154361271c565b5b031561167d576001600381111561155e5761155d61271c565b5b8260038111156115715761157061271c565b5b036115a8576040517ff645eedf00000000000000000000000000000000000000000000000000000000815260040160405180910390fd5b600260038111156115bc576115bb61271c565b5b8260038111156115cf576115ce61271c565b5b03611614578060001c6040517ffce698f700000000000000000000000000000000000000000000000000000000815260040161160b9190611e26565b60405180910390fd5b6003808111156116275761162661271c565b5b82600381111561163a5761163961271c565b5b0361167c57806040517fd78bce0c000000000000000000000000000000000000000000000000000000008152600401611673919061274b565b60405180910390fd5b5b5050565b6060600061168e8361187f565b90506000602067ffffffffffffffff8111156116ad576116ac611998565b5b6040519080825280601f01601f1916602001820160405280156116df5781602001600182028036833780820191505090505b5090508181528360208201528092505050919050565b60007f8b73c3c69bb8fe3d512ecc4cf759cc79239f7b179b0ffacaa9a75d522b39400f7f00000000000000000000000000000000000000000000000000000000000000007f00000000000000000000000000000000000000000000000000000000000000004630604051602001611770959493929190612766565b60405160208183030381529060405280519060200120905090565b60008060007f7fffffffffffffffffffffffffffffff5d576e7357a4501ddfe92f46681b20a08460001c11156117cb576000600385925092509250611875565b6000600188888888604051600081526020016040526040516117f094939291906127d5565b6020604051602081039080840390855afa158015611812573d6000803e3d6000fd5b505050602060405103519050600073ffffffffffffffffffffffffffffffffffffffff168173ffffffffffffffffffffffffffffffffffffffff160361186657600060016000801b93509350935050611875565b8060008060001b935093509350505b9450945094915050565b60008060ff8360001c169050601f8111156118c6576040517fb3512b0c00000000000000000000000000000000000000000000000000000000815260040160405180910390fd5b80915050919050565b6040518060c0016040528060008152602001600073ffffffffffffffffffffffffffffffffffffffff168152602001600073ffffffffffffffffffffffffffffffffffffffff16815260200160008152602001600081526020016000151581525090565b6000604051905090565b600080fd5b600080fd5b6000819050919050565b61195a81611947565b811461196557600080fd5b50565b60008135905061197781611951565b92915050565b600080fd5b600080fd5b6000601f19601f8301169050919050565b7f4e487b7100000000000000000000000000000000000000000000000000000000600052604160045260246000fd5b6119d082611987565b810181811067ffffffffffffffff821117156119ef576119ee611998565b5b80604052505050565b6000611a02611933565b9050611a0e82826119c7565b919050565b600067ffffffffffffffff821115611a2e57611a2d611998565b5b611a3782611987565b9050602081019050919050565b82818337600083830152505050565b6000611a66611a6184611a13565b6119f8565b905082815260208101848484011115611a8257611a81611982565b5b611a8d848285611a44565b509392505050565b600082601f830112611aaa57611aa961197d565b5b8135611aba848260208601611a53565b91505092915050565b60008060408385031215611ada57611ad961193d565b5b6000611ae885828601611968565b925050602083013567ffffffffffffffff811115611b0957611b08611942565b5b611b1585828601611a95565b9150509250929050565b600060208284031215611b3557611b3461193d565b5b600082013567ffffffffffffffff811115611b5357611b52611942565b5b611b5f84828501611a95565b91505092915050565b60007fff0000000000000000000000000000000000000000000000000000000000000082169050919050565b611b9d81611b68565b82525050565b600081519050919050565b600082825260208201905092915050565b60005b83811015611bdd578082015181840152602081019050611bc2565b60008484015250505050565b6000611bf482611ba3565b611bfe8185611bae565b9350611c0e818560208601611bbf565b611c1781611987565b840191505092915050565b611c2b81611947565b82525050565b600073ffffffffffffffffffffffffffffffffffffffff82169050919050565b6000611c5c82611c31565b9050919050565b611c6c81611c51565b82525050565b6000819050919050565b611c8581611c72565b82525050565b600081519050919050565b600082825260208201905092915050565b6000819050602082019050919050565b611cc081611947565b82525050565b6000611cd28383611cb7565b60208301905092915050565b6000602082019050919050565b6000611cf682611c8b565b611d008185611c96565b9350611d0b83611ca7565b8060005b83811015611d3c578151611d238882611cc6565b9750611d2e83611cde565b925050600181019050611d0f565b5085935050505092915050565b600060e082019050611d5e600083018a611b94565b8181036020830152611d708189611be9565b90508181036040830152611d848188611be9565b9050611d936060830187611c22565b611da06080830186611c63565b611dad60a0830185611c7c565b81810360c0830152611dbf8184611ceb565b905098975050505050505050565b611dd681611c51565b8114611de157600080fd5b50565b600081359050611df381611dcd565b92915050565b600060208284031215611e0f57611e0e61193d565b5b6000611e1d84828501611de4565b91505092915050565b6000602082019050611e3b6000830184611c22565b92915050565b6000602082019050611e566000830184611c63565b92915050565b60008060008060808587031215611e7657611e7561193d565b5b6000611e8487828801611de4565b9450506020611e9587828801611968565b9350506040611ea687828801611968565b925050606085013567ffffffffffffffff811115611ec757611ec6611942565b5b611ed387828801611a95565b91505092959194509250565b60008060408385031215611ef657611ef561193d565b5b6000611f0485828601611de4565b925050602083013567ffffffffffffffff811115611f2557611f24611942565b5b611f3185828601611a95565b9150509250929050565b60008115159050919050565b611f5081611f3b565b82525050565b6000602082019050611f6b6000830184611f47565b92915050565b600060208284031215611f8757611f8661193d565b5b6000611f9584828501611968565b91505092915050565b600060c082019050611fb36000830189611c22565b611fc06020830188611c63565b611fcd6040830187611c63565b611fda6060830186611c22565b611fe76080830185611c22565b611ff460a0830184611f47565b979650505050505050565b600081519050919050565b600082825260208201905092915050565b6000819050602082019050919050565b61203481611c51565b82525050565b61204381611f3b565b82525050565b60c08201600082015161205f6000850182611cb7565b506020820151612072602085018261202b565b506040820151612085604085018261202b565b5060608201516120986060850182611cb7565b5060808201516120ab6080850182611cb7565b5060a08201516120be60a085018261203a565b50505050565b60006120d08383612049565b60c08301905092915050565b6000602082019050919050565b60006120f482611fff565b6120fe818561200a565b93506121098361201b565b8060005b8381101561213a57815161212188826120c4565b975061212c836120dc565b92505060018101905061210d565b5085935050505092915050565b6000602082019050818103600083015261216181846120e9565b905092915050565b7f496e76616c6964207369676e6174757265000000000000000000000000000000600082015250565b600061219f601183611bae565b91506121aa82612169565b602082019050919050565b600060208201905081810360008301526121ce81612192565b9050919050565b7f4c697374696e6720646f6573206e6f7420657869737400000000000000000000600082015250565b600061220b601683611bae565b9150612216826121d5565b602082019050919050565b6000602082019050818103600083015261223a816121fe565b9050919050565b7f4c697374696e6720696e61637469766500000000000000000000000000000000600082015250565b6000612277601083611bae565b915061228282612241565b602082019050919050565b600060208201905081810360008301526122a68161226a565b9050919050565b7f496e636f727265637420457468657220616d6f756e742073656e740000000000600082015250565b60006122e3601b83611bae565b91506122ee826122ad565b602082019050919050565b60006020820190508181036000830152612312816122d6565b9050919050565b7f496e73756666696369656e742045746865722073656e74000000000000000000600082015250565b600061234f601783611bae565b915061235a82612319565b602082019050919050565b6000602082019050818103600083015261237e81612342565b9050919050565b600060408201905061239a6000830185611c63565b6123a76020830184611c22565b9392505050565b6123b781611f3b565b81146123c257600080fd5b50565b6000815190506123d4816123ae565b92915050565b6000602082840312156123f0576123ef61193d565b5b60006123fe848285016123c5565b91505092915050565b7f546f6b656e207472616e73666572206661696c65640000000000000000000000600082015250565b600061243d601583611bae565b915061244882612407565b602082019050919050565b6000602082019050818103600083015261246c81612430565b9050919050565b7f4e487b7100000000000000000000000000000000000000000000000000000000600052601160045260246000fd5b60006124ad82611947565b91506124b883611947565b92508282019050808211156124d0576124cf612473565b5b92915050565b60006060820190506124eb6000830186611c63565b6124f86020830185611c63565b6125056040830184611c22565b949350505050565b7f4e6f2066756e647320746f207769746864726177000000000000000000000000600082015250565b6000612543601483611bae565b915061254e8261250d565b602082019050919050565b6000602082019050818103600083015261257281612536565b9050919050565b7f5472616e73666572206661696c65640000000000000000000000000000000000600082015250565b60006125af600f83611bae565b91506125ba82612579565b602082019050919050565b600060208201905081810360008301526125de816125a2565b9050919050565b60006060820190506125fa6000830186611c63565b6126076020830185611c22565b6126146040830184611c22565b949350505050565b600061262782611947565b91507fffffffffffffffffffffffffffffffffffffffffffffffffffffffffffffffff820361265957612658612473565b5b600182019050919050565b7f4e487b7100000000000000000000000000000000000000000000000000000000600052603260045260246000fd5b60006040820190506126a86000830185611c7c565b6126b56020830184611c63565b9392505050565b7f4e487b7100000000000000000000000000000000000000000000000000000000600052602260045260246000fd5b6000600282049050600182168061270357607f821691505b602082108103612716576127156126bc565b5b50919050565b7f4e487b7100000000000000000000000000000000000000000000000000000000600052602160045260246000fd5b60006020820190506127606000830184611c7c565b92915050565b600060a08201905061277b6000830188611c7c565b6127886020830187611c7c565b6127956040830186611c7c565b6127a26060830185611c22565b6127af6080830184611c63565b9695505050505050565b600060ff82169050919050565b6127cf816127b9565b82525050565b60006080820190506127ea6000830187611c7c565b6127f760208301866127c6565b6128046040830185611c7c565b6128116060830184611c7c565b9594505050505056fea26469706673582212208610be63019fd47a754317c3a99cf7bee4241bd46a68d3fa459e654ee7f3ca9264736f6c634300081c0033",
  "linkReferences": {},
  "deployedLinkReferences": {}
}