{
  "_format": "hh-sol-artifact-1",
  "contractName": "Marketplace",
  "sourceName": "contracts/Marketplace.sol",
  "abi": [
    {
      "inputs": [],
      "stateMutability": "nonpayable",
      "type": "constructor"
    },
    {
      "inputs": [],
      "name": "ECDSAInvalidSignature",
      "type": "error"
    },
    {
      "inputs": [
        {
          "internalType": "uint256",
          "name": "length",
          "type": "uint256"
        }
      ],
      "name": "ECDSAInvalidSignatureLength",
      "type": "error"
    },
    {
      "inputs": [
        {
          "internalType": "bytes32",
          "name": "s",
          "type": "bytes32"
        }
      ],
      "name": "ECDSAInvalidSignatureS",
      "type": "error"
    },
    {
      "inputs": [],
      "name": "InvalidShortString",
      "type": "error"
    },
    {
      "inputs": [
        {
          "internalType": "address",
          "name": "owner",
          "type": "address"
        }
      ],
      "name": "OwnableInvalidOwner",
      "type": "error"
    },
    {
      "inputs": [
        {
          "internalType": "address",
          "name": "account",
          "type": "address"
        }
      ],
      "name": "OwnableUnauthorizedAccount",
      "type": "error"
    },
    {
      "inputs": [
        {
          "internalType": "string",
          "name": "str",
          "type": "string"
        }
      ],
      "name": "StringTooLong",
      "type": "error"
    },
    {
      "anonymous": false,
      "inputs": [],
      "name": "EIP712DomainChanged",
      "type": "event"
    },
    {
      "anonymous": false,
      "inputs": [
        {
          "indexed": true,
          "internalType": "address",
          "name": "seller",
          "type": "address"
        },
        {
          "indexed": false,
          "internalType": "uint256",
          "name": "amount",
          "type": "uint256"
        }
      ],
      "name": "FundsWithdrawn",
      "type": "event"
    },
    {
      "anonymous": false,
      "inputs": [
        {
          "indexed": true,
          "internalType": "uint256",
          "name": "listingId",
          "type": "uint256"
        },
        {
          "indexed": true,
          "internalType": "address",
          "name": "seller",
          "type": "address"
        },
        {
          "indexed": false,
          "internalType": "address",
          "name": "token",
          "type": "address"
        },
        {
          "indexed": false,
          "internalType": "uint256",
          "name": "amount",
          "type": "uint256"
        },
        {
          "indexed": false,
          "internalType": "uint256",
          "name": "price",
          "type": "uint256"
        }
      ],
      "name": "ItemListed",
      "type": "event"
    },
    {
      "anonymous": false,
      "inputs": [
        {
          "indexed": true,
          "internalType": "uint256",
          "name": "listingId",
          "type": "uint256"
        },
        {
          "indexed": true,
          "internalType": "address",
          "name": "buyer",
          "type": "address"
        },
        {
          "indexed": false,
          "internalType": "address",
          "name": "seller",
          "type": "address"
        },
        {
          "indexed": false,
          "internalType": "address",
          "name": "token",
          "type": "address"
        },
        {
          "indexed": false,
          "internalType": "uint256",
          "name": "amount",
          "type": "uint256"
        }
      ],
      "name": "ItemPurchased",
      "type": "event"
    },
    {
      "anonymous": false,
      "inputs": [
        {
          "indexed": true,
          "internalType": "address",
          "name": "previousOwner",
          "type": "address"
        },
        {
          "indexed": true,
          "internalType": "address",
          "name": "newOwner",
          "type": "address"
        }
      ],
      "name": "OwnershipTransferred",
      "type": "event"
    },
    {
      "inputs": [
        {
          "internalType": "address",
          "name": "participant",
          "type": "address"
        },
        {
          "internalType": "bytes",
          "name": "signature",
          "type": "bytes"
        }
      ],
      "name": "authorizeWithSignature",
      "outputs": [
        {
          "internalType": "bool",
          "name": "",
          "type": "bool"
        }
      ],
      "stateMutability": "view",
      "type": "function"
    },
    {
      "inputs": [],
      "name": "eip712Domain",
      "outputs": [
        {
          "internalType": "bytes1",
          "name": "fields",
          "type": "bytes1"
        },
        {
          "internalType": "string",
          "name": "name",
          "type": "string"
        },
        {
          "internalType": "string",
          "name": "version",
          "type": "string"
        },
        {
          "internalType": "uint256",
          "name": "chainId",
          "type": "uint256"
        },
        {
          "internalType": "address",
          "name": "verifyingContract",
          "type": "address"
        },
        {
          "internalType": "bytes32",
          "name": "salt",
          "type": "bytes32"
        },
        {
          "internalType": "uint256[]",
          "name": "extensions",
          "type": "uint256[]"
        }
      ],
      "stateMutability": "view",
      "type": "function"
    },
    {
      "inputs": [],
      "name": "getListings",
      "outputs": [
        {
          "components": [
            {
              "internalType": "address",
              "name": "seller",
              "type": "address"
            },
            {
              "internalType": "address",
              "name": "token",
              "type": "address"
            },
            {
              "internalType": "uint256",
              "name": "amount",
              "type": "uint256"
            },
            {
              "internalType": "uint256",
              "name": "price",
              "type": "uint256"
            },
            {
              "internalType": "bool",
              "name": "active",
              "type": "bool"
            }
          ],
          "internalType": "struct Marketplace.Listing[]",
          "name": "",
          "type": "tuple[]"
        }
      ],
      "stateMutability": "view",
      "type": "function"
    },
    {
      "inputs": [
        {
          "internalType": "address",
          "name": "token",
          "type": "address"
        },
        {
          "internalType": "uint256",
          "name": "amount",
          "type": "uint256"
        },
        {
          "internalType": "uint256",
          "name": "price",
          "type": "uint256"
        }
      ],
      "name": "listItem",
      "outputs": [],
      "stateMutability": "nonpayable",
      "type": "function"
    },
    {
      "inputs": [],
      "name": "listingCount",
      "outputs": [
        {
          "internalType": "uint256",
          "name": "",
          "type": "uint256"
        }
      ],
      "stateMutability": "view",
      "type": "function"
    },
    {
      "inputs": [
        {
          "internalType": "uint256",
          "name": "",
          "type": "uint256"
        }
      ],
      "name": "listings",
      "outputs": [
        {
          "internalType": "address",
          "name": "seller",
          "type": "address"
        },
        {
          "internalType": "address",
          "name": "token",
          "type": "address"
        },
        {
          "internalType": "uint256",
          "name": "amount",
          "type": "uint256"
        },
        {
          "internalType": "uint256",
          "name": "price",
          "type": "uint256"
        },
        {
          "internalType": "bool",
          "name": "active",
          "type": "bool"
        }
      ],
      "stateMutability": "view",
      "type": "function"
    },
    {
      "inputs": [],
      "name": "owner",
      "outputs": [
        {
          "internalType": "address",
          "name": "",
          "type": "address"
        }
      ],
      "stateMutability": "view",
      "type": "function"
    },
    {
      "inputs": [
        {
          "internalType": "uint256",
          "name": "listingId",
          "type": "uint256"
        },
        {
          "internalType": "bytes",
          "name": "signature",
          "type": "bytes"
        }
      ],
      "name": "purchaseItem",
      "outputs": [],
      "stateMutability": "payable",
      "type": "function"
    },
    {
      "inputs": [],
      "name": "renounceOwnership",
      "outputs": [],
      "stateMutability": "nonpayable",
      "type": "function"
    },
    {
      "inputs": [
        {
          "internalType": "address",
          "name": "",
          "type": "address"
        }
      ],
      "name": "sellerEarnings",
      "outputs": [
        {
          "internalType": "uint256",
          "name": "",
          "type": "uint256"
        }
      ],
      "stateMutability": "view",
      "type": "function"
    },
    {
      "inputs": [
        {
          "internalType": "address",
          "name": "newOwner",
          "type": "address"
        }
      ],
      "name": "transferOwnership",
      "outputs": [],
      "stateMutability": "nonpayable",
      "type": "function"
    },
    {
      "inputs": [
        {
          "internalType": "bytes",
          "name": "signature",
          "type": "bytes"
        }
      ],
      "name": "withdrawFunds",
      "outputs": [],
      "stateMutability": "nonpayable",
      "type": "function"
    }
  ],
  "bytecode": "0x61016060405234801561001157600080fd5b506040518060400160405280600b81526020017f4d61726b6574706c6163650000000000000000000000000000000000000000008152506040518060400160405280600181526020017f310000000000000000000000000000000000000000000000000000000000000081525033600073ffffffffffffffffffffffffffffffffffffffff168173ffffffffffffffffffffffffffffffffffffffff16036100f15760006040517f1e4fbdf70000000000000000000000000000000000000000000000000000000081526004016100e891906103d2565b60405180910390fd5b610100816101b060201b60201c565b5061011560018361027460201b90919060201c565b610120818152505061013160028261027460201b90919060201c565b6101408181525050818051906020012060e08181525050808051906020012061010081815250504660a0818152505061016e6102c460201b60201c565b608081815250503073ffffffffffffffffffffffffffffffffffffffff1660c08173ffffffffffffffffffffffffffffffffffffffff168152505050506108c8565b60008060009054906101000a900473ffffffffffffffffffffffffffffffffffffffff169050816000806101000a81548173ffffffffffffffffffffffffffffffffffffffff021916908373ffffffffffffffffffffffffffffffffffffffff1602179055508173ffffffffffffffffffffffffffffffffffffffff168173ffffffffffffffffffffffffffffffffffffffff167f8be0079c531659141344cd1fd0a4f28419497f9722a3daafe3b4186f6b6457e060405160405180910390a35050565b60006020835110156102965761028f8361031f60201b60201c565b90506102be565b826102a68361038760201b60201c565b60000190816102b5919061063d565b5060ff60001b90505b92915050565b60007f8b73c3c69bb8fe3d512ecc4cf759cc79239f7b179b0ffacaa9a75d522b39400f60e051610100514630604051602001610304959493929190610737565b60405160208183030381529060405280519060200120905090565b600080829050601f8151111561036c57826040517f305a27a9000000000000000000000000000000000000000000000000000000008152600401610363919061080f565b60405180910390fd5b80518161037890610861565b60001c1760001b915050919050565b6000819050919050565b600073ffffffffffffffffffffffffffffffffffffffff82169050919050565b60006103bc82610391565b9050919050565b6103cc816103b1565b82525050565b60006020820190506103e760008301846103c3565b92915050565b600081519050919050565b7f4e487b7100000000000000000000000000000000000000000000000000000000600052604160045260246000fd5b7f4e487b7100000000000000000000000000000000000000000000000000000000600052602260045260246000fd5b6000600282049050600182168061046e57607f821691505b60208210810361048157610480610427565b5b50919050565b60008190508160005260206000209050919050565b60006020601f8301049050919050565b600082821b905092915050565b6000600883026104e97fffffffffffffffffffffffffffffffffffffffffffffffffffffffffffffffff826104ac565b6104f386836104ac565b95508019841693508086168417925050509392505050565b6000819050919050565b6000819050919050565b600061053a6105356105308461050b565b610515565b61050b565b9050919050565b6000819050919050565b6105548361051f565b61056861056082610541565b8484546104b9565b825550505050565b600090565b61057d610570565b61058881848461054b565b505050565b5b818110156105ac576105a1600082610575565b60018101905061058e565b5050565b601f8211156105f1576105c281610487565b6105cb8461049c565b810160208510156105da578190505b6105ee6105e68561049c565b83018261058d565b50505b505050565b600082821c905092915050565b6000610614600019846008026105f6565b1980831691505092915050565b600061062d8383610603565b9150826002028217905092915050565b610646826103ed565b67ffffffffffffffff81111561065f5761065e6103f8565b5b6106698254610456565b6106748282856105b0565b600060209050601f8311600181146106a75760008415610695578287015190505b61069f8582610621565b865550610707565b601f1984166106b586610487565b60005b828110156106dd578489015182556001820191506020850194506020810190506106b8565b868310156106fa57848901516106f6601f891682610603565b8355505b6001600288020188555050505b505050505050565b6000819050919050565b6107228161070f565b82525050565b6107318161050b565b82525050565b600060a08201905061074c6000830188610719565b6107596020830187610719565b6107666040830186610719565b6107736060830185610728565b61078060808301846103c3565b9695505050505050565b600082825260208201905092915050565b60005b838110156107b957808201518184015260208101905061079e565b60008484015250505050565b6000601f19601f8301169050919050565b60006107e1826103ed565b6107eb818561078a565b93506107fb81856020860161079b565b610804816107c5565b840191505092915050565b6000602082019050818103600083015261082981846107d6565b905092915050565b600081519050919050565b6000819050602082019050919050565b6000610858825161070f565b80915050919050565b600061086c82610831565b826108768461083c565b90506108818161084c565b925060208210156108c1576108bc7fffffffffffffffffffffffffffffffffffffffffffffffffffffffffffffffff836020036008026104ac565b831692505b5050919050565b60805160a05160c05160e05161010051610120516101405161258561092260003960006110fe015260006110c3015260006115a00152600061157f0152600061123201526000611288015260006112b101526125856000f3fe6080604052600436106100a75760003560e01c80638da5cb5b116100645780638da5cb5b1461019f578063a9b07c26146101ca578063c6f82a7a146101f5578063de74e57b14610232578063f1b2d6a314610273578063f2fde38b1461029e576100a7565b80632f359619146100ac5780633b56da69146100c8578063715018a6146100f157806384b0196e1461010857806389bfd38f146101395780638b01235814610162575b600080fd5b6100c660048036038101906100c19190611921565b6102c7565b005b3480156100d457600080fd5b506100ef60048036038101906100ea919061197d565b6105e3565b005b3480156100fd57600080fd5b50610106610791565b005b34801561011457600080fd5b5061011d6107a5565b6040516101309796959493929190611ba7565b60405180910390f35b34801561014557600080fd5b50610160600480360381019061015b9190611c57565b61084f565b005b34801561016e57600080fd5b5061018960048036038101906101849190611caa565b610ab0565b6040516101969190611cd7565b60405180910390f35b3480156101ab57600080fd5b506101b4610ac8565b6040516101c19190611cf2565b60405180910390f35b3480156101d657600080fd5b506101df610af1565b6040516101ec9190611cd7565b60405180910390f35b34801561020157600080fd5b5061021c60048036038101906102179190611d0d565b610af7565b6040516102299190611d84565b60405180910390f35b34801561023e57600080fd5b5061025960048036038101906102549190611d9f565b610b4c565b60405161026a959493929190611dcc565b60405180910390f35b34801561027f57600080fd5b50610288610bcf565b6040516102959190611f54565b60405180910390f35b3480156102aa57600080fd5b506102c560048036038101906102c09190611caa565b610e49565b005b6102d13382610ecf565b610310576040517f08c379a000000000000000000000000000000000000000000000000000000000815260040161030790611fc2565b60405180910390fd5b60006003600084815260200190815260200160002090508060040160009054906101000a900460ff16610378576040517f08c379a000000000000000000000000000000000000000000000000000000000815260040161036f9061202e565b60405180910390fd5b80600301543410156103bf576040517f08c379a00000000000000000000000000000000000000000000000000000000081526004016103b69061209a565b60405180910390fd5b60008160040160006101000a81548160ff0219169083151502179055508060010160009054906101000a900473ffffffffffffffffffffffffffffffffffffffff1673ffffffffffffffffffffffffffffffffffffffff1663a9059cbb3383600201546040518363ffffffff1660e01b815260040161043f9291906120ba565b6020604051808303816000875af115801561045e573d6000803e3d6000fd5b505050506040513d601f19601f82011682018060405250810190610482919061210f565b6104c1576040517f08c379a00000000000000000000000000000000000000000000000000000000081526004016104b890612188565b60405180910390fd5b8060030154600560008360000160009054906101000a900473ffffffffffffffffffffffffffffffffffffffff1673ffffffffffffffffffffffffffffffffffffffff1673ffffffffffffffffffffffffffffffffffffffff168152602001908152602001600020600082825461053891906121d7565b925050819055503373ffffffffffffffffffffffffffffffffffffffff16837f6deea9734d7d5a255e86784c560121da652a9d4fb6e541b1a13850052a841c458360000160009054906101000a900473ffffffffffffffffffffffffffffffffffffffff168460010160009054906101000a900473ffffffffffffffffffffffffffffffffffffffff1685600201546040516105d69392919061220b565b60405180910390a3505050565b6105ed3382610ecf565b61062c576040517f08c379a000000000000000000000000000000000000000000000000000000000815260040161062390611fc2565b60405180910390fd5b6000600560003373ffffffffffffffffffffffffffffffffffffffff1673ffffffffffffffffffffffffffffffffffffffff168152602001908152602001600020549050600081116106b3576040517f08c379a00000000000000000000000000000000000000000000000000000000081526004016106aa9061228e565b60405180910390fd5b6000600560003373ffffffffffffffffffffffffffffffffffffffff1673ffffffffffffffffffffffffffffffffffffffff168152602001908152602001600020819055503373ffffffffffffffffffffffffffffffffffffffff166108fc829081150290604051600060405180830381858888f1935050505015801561073e573d6000803e3d6000fd5b503373ffffffffffffffffffffffffffffffffffffffff167feaff4b37086828766ad3268786972c0cd24259d4c87a80f9d3963a3c3d999b0d826040516107859190611cd7565b60405180910390a25050565b610799610f6f565b6107a36000610ff6565b565b6000606080600080600060606107b96110ba565b6107c16110f5565b46306000801b600067ffffffffffffffff8111156107e2576107e16117f6565b5b6040519080825280602002602001820160405280156108105781602001602082028036833780820191505090505b507f0f00000000000000000000000000000000000000000000000000000000000000959493929190965096509650965096509650965090919293949596565b8273ffffffffffffffffffffffffffffffffffffffff166323b872dd3330856040518463ffffffff1660e01b815260040161088c9392919061220b565b6020604051808303816000875af11580156108ab573d6000803e3d6000fd5b505050506040513d601f19601f820116820180604052508101906108cf919061210f565b61090e576040517f08c379a0000000000000000000000000000000000000000000000000000000008152600401610905906122fa565b60405180910390fd5b6040518060a001604052803373ffffffffffffffffffffffffffffffffffffffff1681526020018473ffffffffffffffffffffffffffffffffffffffff1681526020018381526020018281526020016001151581525060036000600454815260200190815260200160002060008201518160000160006101000a81548173ffffffffffffffffffffffffffffffffffffffff021916908373ffffffffffffffffffffffffffffffffffffffff16021790555060208201518160010160006101000a81548173ffffffffffffffffffffffffffffffffffffffff021916908373ffffffffffffffffffffffffffffffffffffffff160217905550604082015181600201556060820151816003015560808201518160040160006101000a81548160ff0219169083151502179055509050503373ffffffffffffffffffffffffffffffffffffffff166004547f424b3284a7958bb7965c27ca0b2a8b30ce2a56ba954533df15e6bded1b608ed7858585604051610a8b9392919061231a565b60405180910390a360046000815480929190610aa690612351565b9190505550505050565b60056020528060005260406000206000915090505481565b60008060009054906101000a900473ffffffffffffffffffffffffffffffffffffffff16905090565b60045481565b6000610b038383610ecf565b610b42576040517f08c379a0000000000000000000000000000000000000000000000000000000008152600401610b3990611fc2565b60405180910390fd5b6001905092915050565b60036020528060005260406000206000915090508060000160009054906101000a900473ffffffffffffffffffffffffffffffffffffffff16908060010160009054906101000a900473ffffffffffffffffffffffffffffffffffffffff16908060020154908060030154908060040160009054906101000a900460ff16905085565b6060600060045467ffffffffffffffff811115610bef57610bee6117f6565b5b604051908082528060200260200182016040528015610c2857816020015b610c15611734565b815260200190600190039081610c0d5790505b5090506000805b600454811015610d95576003600082815260200190815260200160002060040160009054906101000a900460ff1615610d8857600360008281526020019081526020016000206040518060a00160405290816000820160009054906101000a900473ffffffffffffffffffffffffffffffffffffffff1673ffffffffffffffffffffffffffffffffffffffff1673ffffffffffffffffffffffffffffffffffffffff1681526020016001820160009054906101000a900473ffffffffffffffffffffffffffffffffffffffff1673ffffffffffffffffffffffffffffffffffffffff1673ffffffffffffffffffffffffffffffffffffffff16815260200160028201548152602001600382015481526020016004820160009054906101000a900460ff161515151581525050838381518110610d6e57610d6d612399565b5b60200260200101819052508180610d8490612351565b9250505b8080600101915050610c2f565b5060008167ffffffffffffffff811115610db257610db16117f6565b5b604051908082528060200260200182016040528015610deb57816020015b610dd8611734565b815260200190600190039081610dd05790505b50905060005b82811015610e3f57838181518110610e0c57610e0b612399565b5b6020026020010151828281518110610e2757610e26612399565b5b60200260200101819052508080600101915050610df1565b5080935050505090565b610e51610f6f565b600073ffffffffffffffffffffffffffffffffffffffff168173ffffffffffffffffffffffffffffffffffffffff1603610ec35760006040517f1e4fbdf7000000000000000000000000000000000000000000000000000000008152600401610eba9190611cf2565b60405180910390fd5b610ecc81610ff6565b50565b600080610f237f93b9ee68d59779989af380b4a3a710890893468b597ef26691ac33ce8ca1dd3385604051602001610f089291906123c8565b60405160208183030381529060405280519060200120611130565b90508373ffffffffffffffffffffffffffffffffffffffff16610f4f848361114a90919063ffffffff16565b73ffffffffffffffffffffffffffffffffffffffff161491505092915050565b610f77611176565b73ffffffffffffffffffffffffffffffffffffffff16610f95610ac8565b73ffffffffffffffffffffffffffffffffffffffff1614610ff457610fb8611176565b6040517f118cdaa7000000000000000000000000000000000000000000000000000000008152600401610feb9190611cf2565b60405180910390fd5b565b60008060009054906101000a900473ffffffffffffffffffffffffffffffffffffffff169050816000806101000a81548173ffffffffffffffffffffffffffffffffffffffff021916908373ffffffffffffffffffffffffffffffffffffffff1602179055508173ffffffffffffffffffffffffffffffffffffffff168173ffffffffffffffffffffffffffffffffffffffff167f8be0079c531659141344cd1fd0a4f28419497f9722a3daafe3b4186f6b6457e060405160405180910390a35050565b60606110f060017f000000000000000000000000000000000000000000000000000000000000000061117e90919063ffffffff16565b905090565b606061112b60027f000000000000000000000000000000000000000000000000000000000000000061117e90919063ffffffff16565b905090565b600061114361113d61122e565b836112e5565b9050919050565b60008060008061115a8686611326565b92509250925061116a8282611382565b82935050505092915050565b600033905090565b606060ff60001b831461119b57611194836114e6565b9050611228565b8180546111a790612420565b80601f01602080910402602001604051908101604052809291908181526020018280546111d390612420565b80156112205780601f106111f557610100808354040283529160200191611220565b820191906000526020600020905b81548152906001019060200180831161120357829003601f168201915b505050505090505b92915050565b60007f000000000000000000000000000000000000000000000000000000000000000073ffffffffffffffffffffffffffffffffffffffff163073ffffffffffffffffffffffffffffffffffffffff161480156112aa57507f000000000000000000000000000000000000000000000000000000000000000046145b156112d7577f000000000000000000000000000000000000000000000000000000000000000090506112e2565b6112df61155a565b90505b90565b60006040517f190100000000000000000000000000000000000000000000000000000000000081528360028201528260228201526042812091505092915050565b6000806000604184510361136b5760008060006020870151925060408701519150606087015160001a905061135d888285856115f0565b95509550955050505061137b565b60006002855160001b9250925092505b9250925092565b6000600381111561139657611395612451565b5b8260038111156113a9576113a8612451565b5b03156114e257600160038111156113c3576113c2612451565b5b8260038111156113d6576113d5612451565b5b0361140d576040517ff645eedf00000000000000000000000000000000000000000000000000000000815260040160405180910390fd5b6002600381111561142157611420612451565b5b82600381111561143457611433612451565b5b03611479578060001c6040517ffce698f70000000000000000000000000000000000000000000000000000000081526004016114709190611cd7565b60405180910390fd5b60038081111561148c5761148b612451565b5b82600381111561149f5761149e612451565b5b036114e157806040517fd78bce0c0000000000000000000000000000000000000000000000000000000081526004016114d89190612480565b60405180910390fd5b5b5050565b606060006114f3836116e4565b90506000602067ffffffffffffffff811115611512576115116117f6565b5b6040519080825280601f01601f1916602001820160405280156115445781602001600182028036833780820191505090505b5090508181528360208201528092505050919050565b60007f8b73c3c69bb8fe3d512ecc4cf759cc79239f7b179b0ffacaa9a75d522b39400f7f00000000000000000000000000000000000000000000000000000000000000007f000000000000000000000000000000000000000000000000000000000000000046306040516020016115d595949392919061249b565b60405160208183030381529060405280519060200120905090565b60008060007f7fffffffffffffffffffffffffffffff5d576e7357a4501ddfe92f46681b20a08460001c11156116305760006003859250925092506116da565b600060018888888860405160008152602001604052604051611655949392919061250a565b6020604051602081039080840390855afa158015611677573d6000803e3d6000fd5b505050602060405103519050600073ffffffffffffffffffffffffffffffffffffffff168173ffffffffffffffffffffffffffffffffffffffff16036116cb57600060016000801b935093509350506116da565b8060008060001b935093509350505b9450945094915050565b60008060ff8360001c169050601f81111561172b576040517fb3512b0c00000000000000000000000000000000000000000000000000000000815260040160405180910390fd5b80915050919050565b6040518060a00160405280600073ffffffffffffffffffffffffffffffffffffffff168152602001600073ffffffffffffffffffffffffffffffffffffffff16815260200160008152602001600081526020016000151581525090565b6000604051905090565b600080fd5b600080fd5b6000819050919050565b6117b8816117a5565b81146117c357600080fd5b50565b6000813590506117d5816117af565b92915050565b600080fd5b600080fd5b6000601f19601f8301169050919050565b7f4e487b7100000000000000000000000000000000000000000000000000000000600052604160045260246000fd5b61182e826117e5565b810181811067ffffffffffffffff8211171561184d5761184c6117f6565b5b80604052505050565b6000611860611791565b905061186c8282611825565b919050565b600067ffffffffffffffff82111561188c5761188b6117f6565b5b611895826117e5565b9050602081019050919050565b82818337600083830152505050565b60006118c46118bf84611871565b611856565b9050828152602081018484840111156118e0576118df6117e0565b5b6118eb8482856118a2565b509392505050565b600082601f830112611908576119076117db565b5b81356119188482602086016118b1565b91505092915050565b600080604083850312156119385761193761179b565b5b6000611946858286016117c6565b925050602083013567ffffffffffffffff811115611967576119666117a0565b5b611973858286016118f3565b9150509250929050565b6000602082840312156119935761199261179b565b5b600082013567ffffffffffffffff8111156119b1576119b06117a0565b5b6119bd848285016118f3565b91505092915050565b60007fff0000000000000000000000000000000000000000000000000000000000000082169050919050565b6119fb816119c6565b82525050565b600081519050919050565b600082825260208201905092915050565b60005b83811015611a3b578082015181840152602081019050611a20565b60008484015250505050565b6000611a5282611a01565b611a5c8185611a0c565b9350611a6c818560208601611a1d565b611a75816117e5565b840191505092915050565b611a89816117a5565b82525050565b600073ffffffffffffffffffffffffffffffffffffffff82169050919050565b6000611aba82611a8f565b9050919050565b611aca81611aaf565b82525050565b6000819050919050565b611ae381611ad0565b82525050565b600081519050919050565b600082825260208201905092915050565b6000819050602082019050919050565b611b1e816117a5565b82525050565b6000611b308383611b15565b60208301905092915050565b6000602082019050919050565b6000611b5482611ae9565b611b5e8185611af4565b9350611b6983611b05565b8060005b83811015611b9a578151611b818882611b24565b9750611b8c83611b3c565b925050600181019050611b6d565b5085935050505092915050565b600060e082019050611bbc600083018a6119f2565b8181036020830152611bce8189611a47565b90508181036040830152611be28188611a47565b9050611bf16060830187611a80565b611bfe6080830186611ac1565b611c0b60a0830185611ada565b81810360c0830152611c1d8184611b49565b905098975050505050505050565b611c3481611aaf565b8114611c3f57600080fd5b50565b600081359050611c5181611c2b565b92915050565b600080600060608486031215611c7057611c6f61179b565b5b6000611c7e86828701611c42565b9350506020611c8f868287016117c6565b9250506040611ca0868287016117c6565b9150509250925092565b600060208284031215611cc057611cbf61179b565b5b6000611cce84828501611c42565b91505092915050565b6000602082019050611cec6000830184611a80565b92915050565b6000602082019050611d076000830184611ac1565b92915050565b60008060408385031215611d2457611d2361179b565b5b6000611d3285828601611c42565b925050602083013567ffffffffffffffff811115611d5357611d526117a0565b5b611d5f858286016118f3565b9150509250929050565b60008115159050919050565b611d7e81611d69565b82525050565b6000602082019050611d996000830184611d75565b92915050565b600060208284031215611db557611db461179b565b5b6000611dc3848285016117c6565b91505092915050565b600060a082019050611de16000830188611ac1565b611dee6020830187611ac1565b611dfb6040830186611a80565b611e086060830185611a80565b611e156080830184611d75565b9695505050505050565b600081519050919050565b600082825260208201905092915050565b6000819050602082019050919050565b611e5481611aaf565b82525050565b611e6381611d69565b82525050565b60a082016000820151611e7f6000850182611e4b565b506020820151611e926020850182611e4b565b506040820151611ea56040850182611b15565b506060820151611eb86060850182611b15565b506080820151611ecb6080850182611e5a565b50505050565b6000611edd8383611e69565b60a08301905092915050565b6000602082019050919050565b6000611f0182611e1f565b611f0b8185611e2a565b9350611f1683611e3b565b8060005b83811015611f47578151611f2e8882611ed1565b9750611f3983611ee9565b925050600181019050611f1a565b5085935050505092915050565b60006020820190508181036000830152611f6e8184611ef6565b905092915050565b7f496e76616c6964207369676e6174757265000000000000000000000000000000600082015250565b6000611fac601183611a0c565b9150611fb782611f76565b602082019050919050565b60006020820190508181036000830152611fdb81611f9f565b9050919050565b7f4c697374696e6720696e61637469766500000000000000000000000000000000600082015250565b6000612018601083611a0c565b915061202382611fe2565b602082019050919050565b600060208201905081810360008301526120478161200b565b9050919050565b7f496e73756666696369656e742045746865722073656e74000000000000000000600082015250565b6000612084601783611a0c565b915061208f8261204e565b602082019050919050565b600060208201905081810360008301526120b381612077565b9050919050565b60006040820190506120cf6000830185611ac1565b6120dc6020830184611a80565b9392505050565b6120ec81611d69565b81146120f757600080fd5b50565b600081519050612109816120e3565b92915050565b6000602082840312156121255761212461179b565b5b6000612133848285016120fa565b91505092915050565b7f546f6b656e207472616e73666572206661696c65640000000000000000000000600082015250565b6000612172601583611a0c565b915061217d8261213c565b602082019050919050565b600060208201905081810360008301526121a181612165565b9050919050565b7f4e487b7100000000000000000000000000000000000000000000000000000000600052601160045260246000fd5b60006121e2826117a5565b91506121ed836117a5565b9250828201905080821115612205576122046121a8565b5b92915050565b60006060820190506122206000830186611ac1565b61222d6020830185611ac1565b61223a6040830184611a80565b949350505050565b7f4e6f2066756e647320746f207769746864726177000000000000000000000000600082015250565b6000612278601483611a0c565b915061228382612242565b602082019050919050565b600060208201905081810360008301526122a78161226b565b9050919050565b7f5472616e73666572206661696c65640000000000000000000000000000000000600082015250565b60006122e4600f83611a0c565b91506122ef826122ae565b602082019050919050565b60006020820190508181036000830152612313816122d7565b9050919050565b600060608201905061232f6000830186611ac1565b61233c6020830185611a80565b6123496040830184611a80565b949350505050565b600061235c826117a5565b91507fffffffffffffffffffffffffffffffffffffffffffffffffffffffffffffffff820361238e5761238d6121a8565b5b600182019050919050565b7f4e487b7100000000000000000000000000000000000000000000000000000000600052603260045260246000fd5b60006040820190506123dd6000830185611ada565b6123ea6020830184611ac1565b9392505050565b7f4e487b7100000000000000000000000000000000000000000000000000000000600052602260045260246000fd5b6000600282049050600182168061243857607f821691505b60208210810361244b5761244a6123f1565b5b50919050565b7f4e487b7100000000000000000000000000000000000000000000000000000000600052602160045260246000fd5b60006020820190506124956000830184611ada565b92915050565b600060a0820190506124b06000830188611ada565b6124bd6020830187611ada565b6124ca6040830186611ada565b6124d76060830185611a80565b6124e46080830184611ac1565b9695505050505050565b600060ff82169050919050565b612504816124ee565b82525050565b600060808201905061251f6000830187611ada565b61252c60208301866124fb565b6125396040830185611ada565b6125466060830184611ada565b9594505050505056fea2646970667358221220cb6ebbf324792de910576a83624b1bc487ccda5b3d84f7bf8db35bfdd3b354e864736f6c634300081c0033",
  "linkReferences": {},
  "deployedLinkReferences": {}
}