{
  "_format": "hh-sol-artifact-1",
  "contractName": "Marketplace",
  "sourceName": "contracts/Marketplace.sol",
  "abi": [
    {
      "inputs": [],
      "stateMutability": "nonpayable",
      "type": "constructor"
    },
    {
      "inputs": [],
      "name": "ECDSAInvalidSignature",
      "type": "error"
    },
    {
      "inputs": [
        {
          "internalType": "uint256",
          "name": "length",
          "type": "uint256"
        }
      ],
      "name": "ECDSAInvalidSignatureLength",
      "type": "error"
    },
    {
      "inputs": [
        {
          "internalType": "bytes32",
          "name": "s",
          "type": "bytes32"
        }
      ],
      "name": "ECDSAInvalidSignatureS",
      "type": "error"
    },
    {
      "inputs": [],
      "name": "InvalidShortString",
      "type": "error"
    },
    {
      "inputs": [
        {
          "internalType": "address",
          "name": "owner",
          "type": "address"
        }
      ],
      "name": "OwnableInvalidOwner",
      "type": "error"
    },
    {
      "inputs": [
        {
          "internalType": "address",
          "name": "account",
          "type": "address"
        }
      ],
      "name": "OwnableUnauthorizedAccount",
      "type": "error"
    },
    {
      "inputs": [
        {
          "internalType": "string",
          "name": "str",
          "type": "string"
        }
      ],
      "name": "StringTooLong",
      "type": "error"
    },
    {
      "anonymous": false,
      "inputs": [],
      "name": "EIP712DomainChanged",
      "type": "event"
    },
    {
      "anonymous": false,
      "inputs": [
        {
          "indexed": true,
          "internalType": "address",
          "name": "seller",
          "type": "address"
        },
        {
          "indexed": false,
          "internalType": "uint256",
          "name": "amount",
          "type": "uint256"
        }
      ],
      "name": "FundsWithdrawn",
      "type": "event"
    },
    {
      "anonymous": false,
      "inputs": [
        {
          "indexed": true,
          "internalType": "uint256",
          "name": "listingId",
          "type": "uint256"
        },
        {
          "indexed": true,
          "internalType": "address",
          "name": "seller",
          "type": "address"
        },
        {
          "indexed": false,
          "internalType": "address",
          "name": "token",
          "type": "address"
        },
        {
          "indexed": false,
          "internalType": "uint256",
          "name": "amount",
          "type": "uint256"
        },
        {
          "indexed": false,
          "internalType": "uint256",
          "name": "price",
          "type": "uint256"
        }
      ],
      "name": "ItemListed",
      "type": "event"
    },
    {
      "anonymous": false,
      "inputs": [
        {
          "indexed": true,
          "internalType": "uint256",
          "name": "listingId",
          "type": "uint256"
        },
        {
          "indexed": true,
          "internalType": "address",
          "name": "buyer",
          "type": "address"
        },
        {
          "indexed": false,
          "internalType": "address",
          "name": "seller",
          "type": "address"
        },
        {
          "indexed": false,
          "internalType": "address",
          "name": "token",
          "type": "address"
        },
        {
          "indexed": false,
          "internalType": "uint256",
          "name": "amount",
          "type": "uint256"
        }
      ],
      "name": "ItemPurchased",
      "type": "event"
    },
    {
      "anonymous": false,
      "inputs": [
        {
          "indexed": true,
          "internalType": "address",
          "name": "previousOwner",
          "type": "address"
        },
        {
          "indexed": true,
          "internalType": "address",
          "name": "newOwner",
          "type": "address"
        }
      ],
      "name": "OwnershipTransferred",
      "type": "event"
    },
    {
      "inputs": [
        {
          "internalType": "address",
          "name": "participant",
          "type": "address"
        },
        {
          "internalType": "uint256",
          "name": "nonce",
          "type": "uint256"
        },
        {
          "internalType": "uint256",
          "name": "deadline",
          "type": "uint256"
        },
        {
          "internalType": "bytes",
          "name": "signature",
          "type": "bytes"
        }
      ],
      "name": "authorizeWithSignature",
      "outputs": [
        {
          "internalType": "bool",
          "name": "",
          "type": "bool"
        }
      ],
      "stateMutability": "view",
      "type": "function"
    },
    {
      "inputs": [],
      "name": "eip712Domain",
      "outputs": [
        {
          "internalType": "bytes1",
          "name": "fields",
          "type": "bytes1"
        },
        {
          "internalType": "string",
          "name": "name",
          "type": "string"
        },
        {
          "internalType": "string",
          "name": "version",
          "type": "string"
        },
        {
          "internalType": "uint256",
          "name": "chainId",
          "type": "uint256"
        },
        {
          "internalType": "address",
          "name": "verifyingContract",
          "type": "address"
        },
        {
          "internalType": "bytes32",
          "name": "salt",
          "type": "bytes32"
        },
        {
          "internalType": "uint256[]",
          "name": "extensions",
          "type": "uint256[]"
        }
      ],
      "stateMutability": "view",
      "type": "function"
    },
    {
      "inputs": [],
      "name": "getListings",
      "outputs": [
        {
          "components": [
            {
              "internalType": "address",
              "name": "seller",
              "type": "address"
            },
            {
              "internalType": "address",
              "name": "token",
              "type": "address"
            },
            {
              "internalType": "uint256",
              "name": "amount",
              "type": "uint256"
            },
            {
              "internalType": "uint256",
              "name": "price",
              "type": "uint256"
            },
            {
              "internalType": "bool",
              "name": "active",
              "type": "bool"
            }
          ],
          "internalType": "struct Marketplace.Listing[]",
          "name": "",
          "type": "tuple[]"
        }
      ],
      "stateMutability": "view",
      "type": "function"
    },
    {
      "inputs": [
        {
          "internalType": "address",
          "name": "token",
          "type": "address"
        },
        {
          "internalType": "uint256",
          "name": "amount",
          "type": "uint256"
        },
        {
          "internalType": "uint256",
          "name": "price",
          "type": "uint256"
        }
      ],
      "name": "listItem",
      "outputs": [],
      "stateMutability": "nonpayable",
      "type": "function"
    },
    {
      "inputs": [],
      "name": "listingCount",
      "outputs": [
        {
          "internalType": "uint256",
          "name": "",
          "type": "uint256"
        }
      ],
      "stateMutability": "view",
      "type": "function"
    },
    {
      "inputs": [
        {
          "internalType": "uint256",
          "name": "",
          "type": "uint256"
        }
      ],
      "name": "listings",
      "outputs": [
        {
          "internalType": "address",
          "name": "seller",
          "type": "address"
        },
        {
          "internalType": "address",
          "name": "token",
          "type": "address"
        },
        {
          "internalType": "uint256",
          "name": "amount",
          "type": "uint256"
        },
        {
          "internalType": "uint256",
          "name": "price",
          "type": "uint256"
        },
        {
          "internalType": "bool",
          "name": "active",
          "type": "bool"
        }
      ],
      "stateMutability": "view",
      "type": "function"
    },
    {
      "inputs": [],
      "name": "owner",
      "outputs": [
        {
          "internalType": "address",
          "name": "",
          "type": "address"
        }
      ],
      "stateMutability": "view",
      "type": "function"
    },
    {
      "inputs": [
        {
          "internalType": "uint256",
          "name": "listingId",
          "type": "uint256"
        }
      ],
      "name": "purchaseItem",
      "outputs": [],
      "stateMutability": "payable",
      "type": "function"
    },
    {
      "inputs": [],
      "name": "renounceOwnership",
      "outputs": [],
      "stateMutability": "nonpayable",
      "type": "function"
    },
    {
      "inputs": [
        {
          "internalType": "address",
          "name": "",
          "type": "address"
        }
      ],
      "name": "sellerEarnings",
      "outputs": [
        {
          "internalType": "uint256",
          "name": "",
          "type": "uint256"
        }
      ],
      "stateMutability": "view",
      "type": "function"
    },
    {
      "inputs": [
        {
          "internalType": "address",
          "name": "newOwner",
          "type": "address"
        }
      ],
      "name": "transferOwnership",
      "outputs": [],
      "stateMutability": "nonpayable",
      "type": "function"
    },
    {
      "inputs": [],
      "name": "withdrawFunds",
      "outputs": [],
      "stateMutability": "nonpayable",
      "type": "function"
    }
  ],
  "bytecode": "0x61016060405234801561001157600080fd5b506040518060400160405280600b81526020017f4d61726b6574706c6163650000000000000000000000000000000000000000008152506040518060400160405280600181526020017f310000000000000000000000000000000000000000000000000000000000000081525033600073ffffffffffffffffffffffffffffffffffffffff168173ffffffffffffffffffffffffffffffffffffffff16036100f15760006040517f1e4fbdf70000000000000000000000000000000000000000000000000000000081526004016100e891906103d2565b60405180910390fd5b610100816101b060201b60201c565b5061011560018361027460201b90919060201c565b610120818152505061013160028261027460201b90919060201c565b6101408181525050818051906020012060e08181525050808051906020012061010081815250504660a0818152505061016e6102c460201b60201c565b608081815250503073ffffffffffffffffffffffffffffffffffffffff1660c08173ffffffffffffffffffffffffffffffffffffffff168152505050506108c8565b60008060009054906101000a900473ffffffffffffffffffffffffffffffffffffffff169050816000806101000a81548173ffffffffffffffffffffffffffffffffffffffff021916908373ffffffffffffffffffffffffffffffffffffffff1602179055508173ffffffffffffffffffffffffffffffffffffffff168173ffffffffffffffffffffffffffffffffffffffff167f8be0079c531659141344cd1fd0a4f28419497f9722a3daafe3b4186f6b6457e060405160405180910390a35050565b60006020835110156102965761028f8361031f60201b60201c565b90506102be565b826102a68361038760201b60201c565b60000190816102b5919061063d565b5060ff60001b90505b92915050565b60007f8b73c3c69bb8fe3d512ecc4cf759cc79239f7b179b0ffacaa9a75d522b39400f60e051610100514630604051602001610304959493929190610737565b60405160208183030381529060405280519060200120905090565b600080829050601f8151111561036c57826040517f305a27a9000000000000000000000000000000000000000000000000000000008152600401610363919061080f565b60405180910390fd5b80518161037890610861565b60001c1760001b915050919050565b6000819050919050565b600073ffffffffffffffffffffffffffffffffffffffff82169050919050565b60006103bc82610391565b9050919050565b6103cc816103b1565b82525050565b60006020820190506103e760008301846103c3565b92915050565b600081519050919050565b7f4e487b7100000000000000000000000000000000000000000000000000000000600052604160045260246000fd5b7f4e487b7100000000000000000000000000000000000000000000000000000000600052602260045260246000fd5b6000600282049050600182168061046e57607f821691505b60208210810361048157610480610427565b5b50919050565b60008190508160005260206000209050919050565b60006020601f8301049050919050565b600082821b905092915050565b6000600883026104e97fffffffffffffffffffffffffffffffffffffffffffffffffffffffffffffffff826104ac565b6104f386836104ac565b95508019841693508086168417925050509392505050565b6000819050919050565b6000819050919050565b600061053a6105356105308461050b565b610515565b61050b565b9050919050565b6000819050919050565b6105548361051f565b61056861056082610541565b8484546104b9565b825550505050565b600090565b61057d610570565b61058881848461054b565b505050565b5b818110156105ac576105a1600082610575565b60018101905061058e565b5050565b601f8211156105f1576105c281610487565b6105cb8461049c565b810160208510156105da578190505b6105ee6105e68561049c565b83018261058d565b50505b505050565b600082821c905092915050565b6000610614600019846008026105f6565b1980831691505092915050565b600061062d8383610603565b9150826002028217905092915050565b610646826103ed565b67ffffffffffffffff81111561065f5761065e6103f8565b5b6106698254610456565b6106748282856105b0565b600060209050601f8311600181146106a75760008415610695578287015190505b61069f8582610621565b865550610707565b601f1984166106b586610487565b60005b828110156106dd578489015182556001820191506020850194506020810190506106b8565b868310156106fa57848901516106f6601f891682610603565b8355505b6001600288020188555050505b505050505050565b6000819050919050565b6107228161070f565b82525050565b6107318161050b565b82525050565b600060a08201905061074c6000830188610719565b6107596020830187610719565b6107666040830186610719565b6107736060830185610728565b61078060808301846103c3565b9695505050505050565b600082825260208201905092915050565b60005b838110156107b957808201518184015260208101905061079e565b60008484015250505050565b6000601f19601f8301169050919050565b60006107e1826103ed565b6107eb818561078a565b93506107fb81856020860161079b565b610804816107c5565b840191505092915050565b6000602082019050818103600083015261082981846107d6565b905092915050565b600081519050919050565b6000819050602082019050919050565b6000610858825161070f565b80915050919050565b600061086c82610831565b826108768461083c565b90506108818161084c565b925060208210156108c1576108bc7fffffffffffffffffffffffffffffffffffffffffffffffffffffffffffffffff836020036008026104ac565b831692505b5050919050565b60805160a05160c05160e05161010051610120516101405161253661092260003960006110a50152600061106a0152600061154701526000611526015260006111d90152600061122f0152600061125801526125366000f3fe6080604052600436106100a75760003560e01c80638da5cb5b116100645780638da5cb5b146101ae578063a9b07c26146101d9578063d38ea5bf14610204578063de74e57b14610220578063f1b2d6a314610261578063f2fde38b1461028c576100a7565b806324600fc3146100ac5780635970fc85146100c3578063715018a61461010057806384b0196e1461011757806389bfd38f146101485780638b01235814610171575b600080fd5b3480156100b857600080fd5b506100c16102b5565b005b3480156100cf57600080fd5b506100ea60048036038101906100e59190611926565b610419565b6040516100f791906119c4565b60405180910390f35b34801561010c57600080fd5b506101156104b5565b005b34801561012357600080fd5b5061012c6104c9565b60405161013f9796959493929190611b8e565b60405180910390f35b34801561015457600080fd5b5061016f600480360381019061016a9190611c12565b610573565b005b34801561017d57600080fd5b5061019860048036038101906101939190611c65565b6107d4565b6040516101a59190611c92565b60405180910390f35b3480156101ba57600080fd5b506101c36107ec565b6040516101d09190611cad565b60405180910390f35b3480156101e557600080fd5b506101ee610815565b6040516101fb9190611c92565b60405180910390f35b61021e60048036038101906102199190611cc8565b61081b565b005b34801561022c57600080fd5b5061024760048036038101906102429190611cc8565b610aed565b604051610258959493929190611cf5565b60405180910390f35b34801561026d57600080fd5b50610276610b70565b6040516102839190611e7d565b60405180910390f35b34801561029857600080fd5b506102b360048036038101906102ae9190611c65565b610dea565b005b6000600560003373ffffffffffffffffffffffffffffffffffffffff1673ffffffffffffffffffffffffffffffffffffffff1681526020019081526020016000205490506000811161033c576040517f08c379a000000000000000000000000000000000000000000000000000000000815260040161033390611eeb565b60405180910390fd5b6000600560003373ffffffffffffffffffffffffffffffffffffffff1673ffffffffffffffffffffffffffffffffffffffff168152602001908152602001600020819055503373ffffffffffffffffffffffffffffffffffffffff166108fc829081150290604051600060405180830381858888f193505050501580156103c7573d6000803e3d6000fd5b503373ffffffffffffffffffffffffffffffffffffffff167feaff4b37086828766ad3268786972c0cd24259d4c87a80f9d3963a3c3d999b0d8260405161040e9190611c92565b60405180910390a250565b60008242111561045e576040517f08c379a000000000000000000000000000000000000000000000000000000000815260040161045590611f57565b60405180910390fd5b61046a85858585610e70565b6104a9576040517f08c379a00000000000000000000000000000000000000000000000000000000081526004016104a090611fc3565b60405180910390fd5b60019050949350505050565b6104bd610f16565b6104c76000610f9d565b565b6000606080600080600060606104dd611061565b6104e561109c565b46306000801b600067ffffffffffffffff811115610506576105056117fb565b5b6040519080825280602002602001820160405280156105345781602001602082028036833780820191505090505b507f0f00000000000000000000000000000000000000000000000000000000000000959493929190965096509650965096509650965090919293949596565b8273ffffffffffffffffffffffffffffffffffffffff166323b872dd3330856040518463ffffffff1660e01b81526004016105b093929190611fe3565b6020604051808303816000875af11580156105cf573d6000803e3d6000fd5b505050506040513d601f19601f820116820180604052508101906105f39190612046565b610632576040517f08c379a0000000000000000000000000000000000000000000000000000000008152600401610629906120bf565b60405180910390fd5b6040518060a001604052803373ffffffffffffffffffffffffffffffffffffffff1681526020018473ffffffffffffffffffffffffffffffffffffffff1681526020018381526020018281526020016001151581525060036000600454815260200190815260200160002060008201518160000160006101000a81548173ffffffffffffffffffffffffffffffffffffffff021916908373ffffffffffffffffffffffffffffffffffffffff16021790555060208201518160010160006101000a81548173ffffffffffffffffffffffffffffffffffffffff021916908373ffffffffffffffffffffffffffffffffffffffff160217905550604082015181600201556060820151816003015560808201518160040160006101000a81548160ff0219169083151502179055509050503373ffffffffffffffffffffffffffffffffffffffff166004547f424b3284a7958bb7965c27ca0b2a8b30ce2a56ba954533df15e6bded1b608ed78585856040516107af939291906120df565b60405180910390a3600460008154809291906107ca90612145565b9190505550505050565b60056020528060005260406000206000915090505481565b60008060009054906101000a900473ffffffffffffffffffffffffffffffffffffffff16905090565b60045481565b60006003600083815260200190815260200160002090508060040160009054906101000a900460ff16610883576040517f08c379a000000000000000000000000000000000000000000000000000000000815260040161087a906121d9565b60405180910390fd5b80600301543410156108ca576040517f08c379a00000000000000000000000000000000000000000000000000000000081526004016108c190612245565b60405180910390fd5b60008160040160006101000a81548160ff0219169083151502179055508060010160009054906101000a900473ffffffffffffffffffffffffffffffffffffffff1673ffffffffffffffffffffffffffffffffffffffff1663a9059cbb3383600201546040518363ffffffff1660e01b815260040161094a929190612265565b6020604051808303816000875af1158015610969573d6000803e3d6000fd5b505050506040513d601f19601f8201168201806040525081019061098d9190612046565b6109cc576040517f08c379a00000000000000000000000000000000000000000000000000000000081526004016109c3906122da565b60405180910390fd5b8060030154600560008360000160009054906101000a900473ffffffffffffffffffffffffffffffffffffffff1673ffffffffffffffffffffffffffffffffffffffff1673ffffffffffffffffffffffffffffffffffffffff1681526020019081526020016000206000828254610a4391906122fa565b925050819055503373ffffffffffffffffffffffffffffffffffffffff16827f6deea9734d7d5a255e86784c560121da652a9d4fb6e541b1a13850052a841c458360000160009054906101000a900473ffffffffffffffffffffffffffffffffffffffff168460010160009054906101000a900473ffffffffffffffffffffffffffffffffffffffff168560020154604051610ae193929190611fe3565b60405180910390a35050565b60036020528060005260406000206000915090508060000160009054906101000a900473ffffffffffffffffffffffffffffffffffffffff16908060010160009054906101000a900473ffffffffffffffffffffffffffffffffffffffff16908060020154908060030154908060040160009054906101000a900460ff16905085565b6060600060045467ffffffffffffffff811115610b9057610b8f6117fb565b5b604051908082528060200260200182016040528015610bc957816020015b610bb66116db565b815260200190600190039081610bae5790505b5090506000805b600454811015610d36576003600082815260200190815260200160002060040160009054906101000a900460ff1615610d2957600360008281526020019081526020016000206040518060a00160405290816000820160009054906101000a900473ffffffffffffffffffffffffffffffffffffffff1673ffffffffffffffffffffffffffffffffffffffff1673ffffffffffffffffffffffffffffffffffffffff1681526020016001820160009054906101000a900473ffffffffffffffffffffffffffffffffffffffff1673ffffffffffffffffffffffffffffffffffffffff1673ffffffffffffffffffffffffffffffffffffffff16815260200160028201548152602001600382015481526020016004820160009054906101000a900460ff161515151581525050838381518110610d0f57610d0e61232e565b5b60200260200101819052508180610d2590612145565b9250505b8080600101915050610bd0565b5060008167ffffffffffffffff811115610d5357610d526117fb565b5b604051908082528060200260200182016040528015610d8c57816020015b610d796116db565b815260200190600190039081610d715790505b50905060005b82811015610de057838181518110610dad57610dac61232e565b5b6020026020010151828281518110610dc857610dc761232e565b5b60200260200101819052508080600101915050610d92565b5080935050505090565b610df2610f16565b600073ffffffffffffffffffffffffffffffffffffffff168173ffffffffffffffffffffffffffffffffffffffff1603610e645760006040517f1e4fbdf7000000000000000000000000000000000000000000000000000000008152600401610e5b9190611cad565b60405180910390fd5b610e6d81610f9d565b50565b600080610ec87fbf8f52cebf755ed40592b73010bc11e53d3f50fff80b0188010a2ffb7d51b5d5878787604051602001610ead949392919061235d565b604051602081830303815290604052805190602001206110d7565b90508573ffffffffffffffffffffffffffffffffffffffff16610ef484836110f190919063ffffffff16565b73ffffffffffffffffffffffffffffffffffffffff1614915050949350505050565b610f1e61111d565b73ffffffffffffffffffffffffffffffffffffffff16610f3c6107ec565b73ffffffffffffffffffffffffffffffffffffffff1614610f9b57610f5f61111d565b6040517f118cdaa7000000000000000000000000000000000000000000000000000000008152600401610f929190611cad565b60405180910390fd5b565b60008060009054906101000a900473ffffffffffffffffffffffffffffffffffffffff169050816000806101000a81548173ffffffffffffffffffffffffffffffffffffffff021916908373ffffffffffffffffffffffffffffffffffffffff1602179055508173ffffffffffffffffffffffffffffffffffffffff168173ffffffffffffffffffffffffffffffffffffffff167f8be0079c531659141344cd1fd0a4f28419497f9722a3daafe3b4186f6b6457e060405160405180910390a35050565b606061109760017f000000000000000000000000000000000000000000000000000000000000000061112590919063ffffffff16565b905090565b60606110d260027f000000000000000000000000000000000000000000000000000000000000000061112590919063ffffffff16565b905090565b60006110ea6110e46111d5565b8361128c565b9050919050565b60008060008061110186866112cd565b9250925092506111118282611329565b82935050505092915050565b600033905090565b606060ff60001b83146111425761113b8361148d565b90506111cf565b81805461114e906123d1565b80601f016020809104026020016040519081016040528092919081815260200182805461117a906123d1565b80156111c75780601f1061119c576101008083540402835291602001916111c7565b820191906000526020600020905b8154815290600101906020018083116111aa57829003601f168201915b505050505090505b92915050565b60007f000000000000000000000000000000000000000000000000000000000000000073ffffffffffffffffffffffffffffffffffffffff163073ffffffffffffffffffffffffffffffffffffffff1614801561125157507f000000000000000000000000000000000000000000000000000000000000000046145b1561127e577f00000000000000000000000000000000000000000000000000000000000000009050611289565b611286611501565b90505b90565b60006040517f190100000000000000000000000000000000000000000000000000000000000081528360028201528260228201526042812091505092915050565b600080600060418451036113125760008060006020870151925060408701519150606087015160001a905061130488828585611597565b955095509550505050611322565b60006002855160001b9250925092505b9250925092565b6000600381111561133d5761133c612402565b5b8260038111156113505761134f612402565b5b0315611489576001600381111561136a57611369612402565b5b82600381111561137d5761137c612402565b5b036113b4576040517ff645eedf00000000000000000000000000000000000000000000000000000000815260040160405180910390fd5b600260038111156113c8576113c7612402565b5b8260038111156113db576113da612402565b5b03611420578060001c6040517ffce698f70000000000000000000000000000000000000000000000000000000081526004016114179190611c92565b60405180910390fd5b60038081111561143357611432612402565b5b82600381111561144657611445612402565b5b0361148857806040517fd78bce0c00000000000000000000000000000000000000000000000000000000815260040161147f9190612431565b60405180910390fd5b5b5050565b6060600061149a8361168b565b90506000602067ffffffffffffffff8111156114b9576114b86117fb565b5b6040519080825280601f01601f1916602001820160405280156114eb5781602001600182028036833780820191505090505b5090508181528360208201528092505050919050565b60007f8b73c3c69bb8fe3d512ecc4cf759cc79239f7b179b0ffacaa9a75d522b39400f7f00000000000000000000000000000000000000000000000000000000000000007f0000000000000000000000000000000000000000000000000000000000000000463060405160200161157c95949392919061244c565b60405160208183030381529060405280519060200120905090565b60008060007f7fffffffffffffffffffffffffffffff5d576e7357a4501ddfe92f46681b20a08460001c11156115d7576000600385925092509250611681565b6000600188888888604051600081526020016040526040516115fc94939291906124bb565b6020604051602081039080840390855afa15801561161e573d6000803e3d6000fd5b505050602060405103519050600073ffffffffffffffffffffffffffffffffffffffff168173ffffffffffffffffffffffffffffffffffffffff160361167257600060016000801b93509350935050611681565b8060008060001b935093509350505b9450945094915050565b60008060ff8360001c169050601f8111156116d2576040517fb3512b0c00000000000000000000000000000000000000000000000000000000815260040160405180910390fd5b80915050919050565b6040518060a00160405280600073ffffffffffffffffffffffffffffffffffffffff168152602001600073ffffffffffffffffffffffffffffffffffffffff16815260200160008152602001600081526020016000151581525090565b6000604051905090565b600080fd5b600080fd5b600073ffffffffffffffffffffffffffffffffffffffff82169050919050565b60006117778261174c565b9050919050565b6117878161176c565b811461179257600080fd5b50565b6000813590506117a48161177e565b92915050565b6000819050919050565b6117bd816117aa565b81146117c857600080fd5b50565b6000813590506117da816117b4565b92915050565b600080fd5b600080fd5b6000601f19601f8301169050919050565b7f4e487b7100000000000000000000000000000000000000000000000000000000600052604160045260246000fd5b611833826117ea565b810181811067ffffffffffffffff82111715611852576118516117fb565b5b80604052505050565b6000611865611738565b9050611871828261182a565b919050565b600067ffffffffffffffff821115611891576118906117fb565b5b61189a826117ea565b9050602081019050919050565b82818337600083830152505050565b60006118c96118c484611876565b61185b565b9050828152602081018484840111156118e5576118e46117e5565b5b6118f08482856118a7565b509392505050565b600082601f83011261190d5761190c6117e0565b5b813561191d8482602086016118b6565b91505092915050565b600080600080608085870312156119405761193f611742565b5b600061194e87828801611795565b945050602061195f878288016117cb565b9350506040611970878288016117cb565b925050606085013567ffffffffffffffff81111561199157611990611747565b5b61199d878288016118f8565b91505092959194509250565b60008115159050919050565b6119be816119a9565b82525050565b60006020820190506119d960008301846119b5565b92915050565b60007fff0000000000000000000000000000000000000000000000000000000000000082169050919050565b611a14816119df565b82525050565b600081519050919050565b600082825260208201905092915050565b60005b83811015611a54578082015181840152602081019050611a39565b60008484015250505050565b6000611a6b82611a1a565b611a758185611a25565b9350611a85818560208601611a36565b611a8e816117ea565b840191505092915050565b611aa2816117aa565b82525050565b611ab18161176c565b82525050565b6000819050919050565b611aca81611ab7565b82525050565b600081519050919050565b600082825260208201905092915050565b6000819050602082019050919050565b611b05816117aa565b82525050565b6000611b178383611afc565b60208301905092915050565b6000602082019050919050565b6000611b3b82611ad0565b611b458185611adb565b9350611b5083611aec565b8060005b83811015611b81578151611b688882611b0b565b9750611b7383611b23565b925050600181019050611b54565b5085935050505092915050565b600060e082019050611ba3600083018a611a0b565b8181036020830152611bb58189611a60565b90508181036040830152611bc98188611a60565b9050611bd86060830187611a99565b611be56080830186611aa8565b611bf260a0830185611ac1565b81810360c0830152611c048184611b30565b905098975050505050505050565b600080600060608486031215611c2b57611c2a611742565b5b6000611c3986828701611795565b9350506020611c4a868287016117cb565b9250506040611c5b868287016117cb565b9150509250925092565b600060208284031215611c7b57611c7a611742565b5b6000611c8984828501611795565b91505092915050565b6000602082019050611ca76000830184611a99565b92915050565b6000602082019050611cc26000830184611aa8565b92915050565b600060208284031215611cde57611cdd611742565b5b6000611cec848285016117cb565b91505092915050565b600060a082019050611d0a6000830188611aa8565b611d176020830187611aa8565b611d246040830186611a99565b611d316060830185611a99565b611d3e60808301846119b5565b9695505050505050565b600081519050919050565b600082825260208201905092915050565b6000819050602082019050919050565b611d7d8161176c565b82525050565b611d8c816119a9565b82525050565b60a082016000820151611da86000850182611d74565b506020820151611dbb6020850182611d74565b506040820151611dce6040850182611afc565b506060820151611de16060850182611afc565b506080820151611df46080850182611d83565b50505050565b6000611e068383611d92565b60a08301905092915050565b6000602082019050919050565b6000611e2a82611d48565b611e348185611d53565b9350611e3f83611d64565b8060005b83811015611e70578151611e578882611dfa565b9750611e6283611e12565b925050600181019050611e43565b5085935050505092915050565b60006020820190508181036000830152611e978184611e1f565b905092915050565b7f4e6f2066756e647320746f207769746864726177000000000000000000000000600082015250565b6000611ed5601483611a25565b9150611ee082611e9f565b602082019050919050565b60006020820190508181036000830152611f0481611ec8565b9050919050565b7f5369676e61747572652065787069726564000000000000000000000000000000600082015250565b6000611f41601183611a25565b9150611f4c82611f0b565b602082019050919050565b60006020820190508181036000830152611f7081611f34565b9050919050565b7f496e76616c6964207369676e6174757265000000000000000000000000000000600082015250565b6000611fad601183611a25565b9150611fb882611f77565b602082019050919050565b60006020820190508181036000830152611fdc81611fa0565b9050919050565b6000606082019050611ff86000830186611aa8565b6120056020830185611aa8565b6120126040830184611a99565b949350505050565b612023816119a9565b811461202e57600080fd5b50565b6000815190506120408161201a565b92915050565b60006020828403121561205c5761205b611742565b5b600061206a84828501612031565b91505092915050565b7f5472616e73666572206661696c65640000000000000000000000000000000000600082015250565b60006120a9600f83611a25565b91506120b482612073565b602082019050919050565b600060208201905081810360008301526120d88161209c565b9050919050565b60006060820190506120f46000830186611aa8565b6121016020830185611a99565b61210e6040830184611a99565b949350505050565b7f4e487b7100000000000000000000000000000000000000000000000000000000600052601160045260246000fd5b6000612150826117aa565b91507fffffffffffffffffffffffffffffffffffffffffffffffffffffffffffffffff820361218257612181612116565b5b600182019050919050565b7f4c697374696e6720696e61637469766500000000000000000000000000000000600082015250565b60006121c3601083611a25565b91506121ce8261218d565b602082019050919050565b600060208201905081810360008301526121f2816121b6565b9050919050565b7f496e73756666696369656e742045746865722073656e74000000000000000000600082015250565b600061222f601783611a25565b915061223a826121f9565b602082019050919050565b6000602082019050818103600083015261225e81612222565b9050919050565b600060408201905061227a6000830185611aa8565b6122876020830184611a99565b9392505050565b7f546f6b656e207472616e73666572206661696c65640000000000000000000000600082015250565b60006122c4601583611a25565b91506122cf8261228e565b602082019050919050565b600060208201905081810360008301526122f3816122b7565b9050919050565b6000612305826117aa565b9150612310836117aa565b925082820190508082111561232857612327612116565b5b92915050565b7f4e487b7100000000000000000000000000000000000000000000000000000000600052603260045260246000fd5b60006080820190506123726000830187611ac1565b61237f6020830186611aa8565b61238c6040830185611a99565b6123996060830184611a99565b95945050505050565b7f4e487b7100000000000000000000000000000000000000000000000000000000600052602260045260246000fd5b600060028204905060018216806123e957607f821691505b6020821081036123fc576123fb6123a2565b5b50919050565b7f4e487b7100000000000000000000000000000000000000000000000000000000600052602160045260246000fd5b60006020820190506124466000830184611ac1565b92915050565b600060a0820190506124616000830188611ac1565b61246e6020830187611ac1565b61247b6040830186611ac1565b6124886060830185611a99565b6124956080830184611aa8565b9695505050505050565b600060ff82169050919050565b6124b58161249f565b82525050565b60006080820190506124d06000830187611ac1565b6124dd60208301866124ac565b6124ea6040830185611ac1565b6124f76060830184611ac1565b9594505050505056fea26469706673582212205ce2f98c0ee4f203d93f472c848797912c045f5d06a8b93071bcaf1dd6d5168c64736f6c634300081c0033",
  "linkReferences": {},
  "deployedLinkReferences": {}
}