{
  "_format": "hh-sol-artifact-1",
  "contractName": "Marketplace",
  "sourceName": "contracts/Marketplace.sol",
  "abi": [
    {
      "inputs": [],
      "stateMutability": "nonpayable",
      "type": "constructor"
    },
    {
      "inputs": [],
      "name": "ECDSAInvalidSignature",
      "type": "error"
    },
    {
      "inputs": [
        {
          "internalType": "uint256",
          "name": "length",
          "type": "uint256"
        }
      ],
      "name": "ECDSAInvalidSignatureLength",
      "type": "error"
    },
    {
      "inputs": [
        {
          "internalType": "bytes32",
          "name": "s",
          "type": "bytes32"
        }
      ],
      "name": "ECDSAInvalidSignatureS",
      "type": "error"
    },
    {
      "inputs": [],
      "name": "InvalidShortString",
      "type": "error"
    },
    {
      "inputs": [
        {
          "internalType": "address",
          "name": "owner",
          "type": "address"
        }
      ],
      "name": "OwnableInvalidOwner",
      "type": "error"
    },
    {
      "inputs": [
        {
          "internalType": "address",
          "name": "account",
          "type": "address"
        }
      ],
      "name": "OwnableUnauthorizedAccount",
      "type": "error"
    },
    {
      "inputs": [
        {
          "internalType": "string",
          "name": "str",
          "type": "string"
        }
      ],
      "name": "StringTooLong",
      "type": "error"
    },
    {
      "anonymous": false,
      "inputs": [],
      "name": "EIP712DomainChanged",
      "type": "event"
    },
    {
      "anonymous": false,
      "inputs": [
        {
          "indexed": true,
          "internalType": "address",
          "name": "seller",
          "type": "address"
        },
        {
          "indexed": false,
          "internalType": "uint256",
          "name": "amount",
          "type": "uint256"
        }
      ],
      "name": "FundsWithdrawn",
      "type": "event"
    },
    {
      "anonymous": false,
      "inputs": [
        {
          "indexed": true,
          "internalType": "uint256",
          "name": "listingId",
          "type": "uint256"
        },
        {
          "indexed": true,
          "internalType": "address",
          "name": "seller",
          "type": "address"
        },
        {
          "indexed": false,
          "internalType": "address",
          "name": "token",
          "type": "address"
        },
        {
          "indexed": false,
          "internalType": "uint256",
          "name": "amount",
          "type": "uint256"
        },
        {
          "indexed": false,
          "internalType": "uint256",
          "name": "price",
          "type": "uint256"
        }
      ],
      "name": "ItemListed",
      "type": "event"
    },
    {
      "anonymous": false,
      "inputs": [
        {
          "indexed": true,
          "internalType": "uint256",
          "name": "listingId",
          "type": "uint256"
        },
        {
          "indexed": true,
          "internalType": "address",
          "name": "buyer",
          "type": "address"
        },
        {
          "indexed": false,
          "internalType": "address",
          "name": "seller",
          "type": "address"
        },
        {
          "indexed": false,
          "internalType": "address",
          "name": "token",
          "type": "address"
        },
        {
          "indexed": false,
          "internalType": "uint256",
          "name": "amount",
          "type": "uint256"
        }
      ],
      "name": "ItemPurchased",
      "type": "event"
    },
    {
      "anonymous": false,
      "inputs": [
        {
          "indexed": true,
          "internalType": "address",
          "name": "previousOwner",
          "type": "address"
        },
        {
          "indexed": true,
          "internalType": "address",
          "name": "newOwner",
          "type": "address"
        }
      ],
      "name": "OwnershipTransferred",
      "type": "event"
    },
    {
      "inputs": [
        {
          "internalType": "address",
          "name": "participant",
          "type": "address"
        },
        {
          "internalType": "bytes",
          "name": "signature",
          "type": "bytes"
        }
      ],
      "name": "authorizeWithSignature",
      "outputs": [
        {
          "internalType": "bool",
          "name": "",
          "type": "bool"
        }
      ],
      "stateMutability": "view",
      "type": "function"
    },
    {
      "inputs": [],
      "name": "eip712Domain",
      "outputs": [
        {
          "internalType": "bytes1",
          "name": "fields",
          "type": "bytes1"
        },
        {
          "internalType": "string",
          "name": "name",
          "type": "string"
        },
        {
          "internalType": "string",
          "name": "version",
          "type": "string"
        },
        {
          "internalType": "uint256",
          "name": "chainId",
          "type": "uint256"
        },
        {
          "internalType": "address",
          "name": "verifyingContract",
          "type": "address"
        },
        {
          "internalType": "bytes32",
          "name": "salt",
          "type": "bytes32"
        },
        {
          "internalType": "uint256[]",
          "name": "extensions",
          "type": "uint256[]"
        }
      ],
      "stateMutability": "view",
      "type": "function"
    },
    {
      "inputs": [],
      "name": "getListings",
      "outputs": [
        {
          "components": [
            {
              "internalType": "uint256",
              "name": "id",
              "type": "uint256"
            },
            {
              "internalType": "address",
              "name": "seller",
              "type": "address"
            },
            {
              "internalType": "address",
              "name": "token",
              "type": "address"
            },
            {
              "internalType": "uint256",
              "name": "amount",
              "type": "uint256"
            },
            {
              "internalType": "uint256",
              "name": "price",
              "type": "uint256"
            },
            {
              "internalType": "bool",
              "name": "active",
              "type": "bool"
            }
          ],
          "internalType": "struct Marketplace.Listing[]",
          "name": "",
          "type": "tuple[]"
        }
      ],
      "stateMutability": "view",
      "type": "function"
    },
    {
      "inputs": [
        {
          "internalType": "address",
          "name": "token",
          "type": "address"
        },
        {
          "internalType": "uint256",
          "name": "amount",
          "type": "uint256"
        },
        {
          "internalType": "uint256",
          "name": "price",
          "type": "uint256"
        }
      ],
      "name": "listItem",
      "outputs": [],
      "stateMutability": "nonpayable",
      "type": "function"
    },
    {
      "inputs": [],
      "name": "listingCount",
      "outputs": [
        {
          "internalType": "uint256",
          "name": "",
          "type": "uint256"
        }
      ],
      "stateMutability": "view",
      "type": "function"
    },
    {
      "inputs": [
        {
          "internalType": "uint256",
          "name": "",
          "type": "uint256"
        }
      ],
      "name": "listings",
      "outputs": [
        {
          "internalType": "uint256",
          "name": "id",
          "type": "uint256"
        },
        {
          "internalType": "address",
          "name": "seller",
          "type": "address"
        },
        {
          "internalType": "address",
          "name": "token",
          "type": "address"
        },
        {
          "internalType": "uint256",
          "name": "amount",
          "type": "uint256"
        },
        {
          "internalType": "uint256",
          "name": "price",
          "type": "uint256"
        },
        {
          "internalType": "bool",
          "name": "active",
          "type": "bool"
        }
      ],
      "stateMutability": "view",
      "type": "function"
    },
    {
      "inputs": [],
      "name": "owner",
      "outputs": [
        {
          "internalType": "address",
          "name": "",
          "type": "address"
        }
      ],
      "stateMutability": "view",
      "type": "function"
    },
    {
      "inputs": [
        {
          "internalType": "uint256",
          "name": "listingId",
          "type": "uint256"
        },
        {
          "internalType": "bytes",
          "name": "signature",
          "type": "bytes"
        }
      ],
      "name": "purchaseItem",
      "outputs": [],
      "stateMutability": "payable",
      "type": "function"
    },
    {
      "inputs": [],
      "name": "renounceOwnership",
      "outputs": [],
      "stateMutability": "nonpayable",
      "type": "function"
    },
    {
      "inputs": [
        {
          "internalType": "address",
          "name": "",
          "type": "address"
        }
      ],
      "name": "sellerEarnings",
      "outputs": [
        {
          "internalType": "uint256",
          "name": "",
          "type": "uint256"
        }
      ],
      "stateMutability": "view",
      "type": "function"
    },
    {
      "inputs": [
        {
          "internalType": "address",
          "name": "newOwner",
          "type": "address"
        }
      ],
      "name": "transferOwnership",
      "outputs": [],
      "stateMutability": "nonpayable",
      "type": "function"
    },
    {
      "inputs": [
        {
          "internalType": "bytes",
          "name": "signature",
          "type": "bytes"
        }
      ],
      "name": "withdrawFunds",
      "outputs": [],
      "stateMutability": "nonpayable",
      "type": "function"
    }
  ],
  "bytecode": "0x61016060405234801561001157600080fd5b506040518060400160405280600b81526020017f4d61726b6574706c6163650000000000000000000000000000000000000000008152506040518060400160405280600181526020017f310000000000000000000000000000000000000000000000000000000000000081525033600073ffffffffffffffffffffffffffffffffffffffff168173ffffffffffffffffffffffffffffffffffffffff16036100f15760006040517f1e4fbdf70000000000000000000000000000000000000000000000000000000081526004016100e891906103d2565b60405180910390fd5b610100816101b060201b60201c565b5061011560018361027460201b90919060201c565b610120818152505061013160028261027460201b90919060201c565b6101408181525050818051906020012060e08181525050808051906020012061010081815250504660a0818152505061016e6102c460201b60201c565b608081815250503073ffffffffffffffffffffffffffffffffffffffff1660c08173ffffffffffffffffffffffffffffffffffffffff168152505050506108c8565b60008060009054906101000a900473ffffffffffffffffffffffffffffffffffffffff169050816000806101000a81548173ffffffffffffffffffffffffffffffffffffffff021916908373ffffffffffffffffffffffffffffffffffffffff1602179055508173ffffffffffffffffffffffffffffffffffffffff168173ffffffffffffffffffffffffffffffffffffffff167f8be0079c531659141344cd1fd0a4f28419497f9722a3daafe3b4186f6b6457e060405160405180910390a35050565b60006020835110156102965761028f8361031f60201b60201c565b90506102be565b826102a68361038760201b60201c565b60000190816102b5919061063d565b5060ff60001b90505b92915050565b60007f8b73c3c69bb8fe3d512ecc4cf759cc79239f7b179b0ffacaa9a75d522b39400f60e051610100514630604051602001610304959493929190610737565b60405160208183030381529060405280519060200120905090565b600080829050601f8151111561036c57826040517f305a27a9000000000000000000000000000000000000000000000000000000008152600401610363919061080f565b60405180910390fd5b80518161037890610861565b60001c1760001b915050919050565b6000819050919050565b600073ffffffffffffffffffffffffffffffffffffffff82169050919050565b60006103bc82610391565b9050919050565b6103cc816103b1565b82525050565b60006020820190506103e760008301846103c3565b92915050565b600081519050919050565b7f4e487b7100000000000000000000000000000000000000000000000000000000600052604160045260246000fd5b7f4e487b7100000000000000000000000000000000000000000000000000000000600052602260045260246000fd5b6000600282049050600182168061046e57607f821691505b60208210810361048157610480610427565b5b50919050565b60008190508160005260206000209050919050565b60006020601f8301049050919050565b600082821b905092915050565b6000600883026104e97fffffffffffffffffffffffffffffffffffffffffffffffffffffffffffffffff826104ac565b6104f386836104ac565b95508019841693508086168417925050509392505050565b6000819050919050565b6000819050919050565b600061053a6105356105308461050b565b610515565b61050b565b9050919050565b6000819050919050565b6105548361051f565b61056861056082610541565b8484546104b9565b825550505050565b600090565b61057d610570565b61058881848461054b565b505050565b5b818110156105ac576105a1600082610575565b60018101905061058e565b5050565b601f8211156105f1576105c281610487565b6105cb8461049c565b810160208510156105da578190505b6105ee6105e68561049c565b83018261058d565b50505b505050565b600082821c905092915050565b6000610614600019846008026105f6565b1980831691505092915050565b600061062d8383610603565b9150826002028217905092915050565b610646826103ed565b67ffffffffffffffff81111561065f5761065e6103f8565b5b6106698254610456565b6106748282856105b0565b600060209050601f8311600181146106a75760008415610695578287015190505b61069f8582610621565b865550610707565b601f1984166106b586610487565b60005b828110156106dd578489015182556001820191506020850194506020810190506106b8565b868310156106fa57848901516106f6601f891682610603565b8355505b6001600288020188555050505b505050505050565b6000819050919050565b6107228161070f565b82525050565b6107318161050b565b82525050565b600060a08201905061074c6000830188610719565b6107596020830187610719565b6107666040830186610719565b6107736060830185610728565b61078060808301846103c3565b9695505050505050565b600082825260208201905092915050565b60005b838110156107b957808201518184015260208101905061079e565b60008484015250505050565b6000601f19601f8301169050919050565b60006107e1826103ed565b6107eb818561078a565b93506107fb81856020860161079b565b610804816107c5565b840191505092915050565b6000602082019050818103600083015261082981846107d6565b905092915050565b600081519050919050565b6000819050602082019050919050565b6000610858825161070f565b80915050919050565b600061086c82610831565b826108768461083c565b90506108818161084c565b925060208210156108c1576108bc7fffffffffffffffffffffffffffffffffffffffffffffffffffffffffffffffff836020036008026104ac565b831692505b5050919050565b60805160a05160c05160e0516101005161012051610140516125d06109226000396000611121015260006110e6015260006115c3015260006115a201526000611255015260006112ab015260006112d401526125d06000f3fe6080604052600436106100a75760003560e01c80638da5cb5b116100645780638da5cb5b1461019f578063a9b07c26146101ca578063c6f82a7a146101f5578063de74e57b14610232578063f1b2d6a314610274578063f2fde38b1461029f576100a7565b80632f359619146100ac5780633b56da69146100c8578063715018a6146100f157806384b0196e1461010857806389bfd38f146101395780638b01235814610162575b600080fd5b6100c660048036038101906100c1919061194b565b6102c8565b005b3480156100d457600080fd5b506100ef60048036038101906100ea91906119a7565b6105e4565b005b3480156100fd57600080fd5b50610106610792565b005b34801561011457600080fd5b5061011d6107a6565b6040516101309796959493929190611bd1565b60405180910390f35b34801561014557600080fd5b50610160600480360381019061015b9190611c81565b610850565b005b34801561016e57600080fd5b5061018960048036038101906101849190611cd4565b610ac3565b6040516101969190611d01565b60405180910390f35b3480156101ab57600080fd5b506101b4610adb565b6040516101c19190611d1c565b60405180910390f35b3480156101d657600080fd5b506101df610b04565b6040516101ec9190611d01565b60405180910390f35b34801561020157600080fd5b5061021c60048036038101906102179190611d37565b610b0a565b6040516102299190611dae565b60405180910390f35b34801561023e57600080fd5b5061025960048036038101906102549190611dc9565b610b5f565b60405161026b96959493929190611df6565b60405180910390f35b34801561028057600080fd5b50610289610be8565b6040516102969190611f9f565b60405180910390f35b3480156102ab57600080fd5b506102c660048036038101906102c19190611cd4565b610e6c565b005b6102d23382610ef2565b610311576040517f08c379a00000000000000000000000000000000000000000000000000000000081526004016103089061200d565b60405180910390fd5b60006003600084815260200190815260200160002090508060050160009054906101000a900460ff16610379576040517f08c379a000000000000000000000000000000000000000000000000000000000815260040161037090612079565b60405180910390fd5b80600401543410156103c0576040517f08c379a00000000000000000000000000000000000000000000000000000000081526004016103b7906120e5565b60405180910390fd5b60008160050160006101000a81548160ff0219169083151502179055508060020160009054906101000a900473ffffffffffffffffffffffffffffffffffffffff1673ffffffffffffffffffffffffffffffffffffffff1663a9059cbb3383600301546040518363ffffffff1660e01b8152600401610440929190612105565b6020604051808303816000875af115801561045f573d6000803e3d6000fd5b505050506040513d601f19601f82011682018060405250810190610483919061215a565b6104c2576040517f08c379a00000000000000000000000000000000000000000000000000000000081526004016104b9906121d3565b60405180910390fd5b8060040154600560008360010160009054906101000a900473ffffffffffffffffffffffffffffffffffffffff1673ffffffffffffffffffffffffffffffffffffffff1673ffffffffffffffffffffffffffffffffffffffff16815260200190815260200160002060008282546105399190612222565b925050819055503373ffffffffffffffffffffffffffffffffffffffff16837f6deea9734d7d5a255e86784c560121da652a9d4fb6e541b1a13850052a841c458360010160009054906101000a900473ffffffffffffffffffffffffffffffffffffffff168460020160009054906101000a900473ffffffffffffffffffffffffffffffffffffffff1685600301546040516105d793929190612256565b60405180910390a3505050565b6105ee3382610ef2565b61062d576040517f08c379a00000000000000000000000000000000000000000000000000000000081526004016106249061200d565b60405180910390fd5b6000600560003373ffffffffffffffffffffffffffffffffffffffff1673ffffffffffffffffffffffffffffffffffffffff168152602001908152602001600020549050600081116106b4576040517f08c379a00000000000000000000000000000000000000000000000000000000081526004016106ab906122d9565b60405180910390fd5b6000600560003373ffffffffffffffffffffffffffffffffffffffff1673ffffffffffffffffffffffffffffffffffffffff168152602001908152602001600020819055503373ffffffffffffffffffffffffffffffffffffffff166108fc829081150290604051600060405180830381858888f1935050505015801561073f573d6000803e3d6000fd5b503373ffffffffffffffffffffffffffffffffffffffff167feaff4b37086828766ad3268786972c0cd24259d4c87a80f9d3963a3c3d999b0d826040516107869190611d01565b60405180910390a25050565b61079a610f92565b6107a46000611019565b565b6000606080600080600060606107ba6110dd565b6107c2611118565b46306000801b600067ffffffffffffffff8111156107e3576107e2611820565b5b6040519080825280602002602001820160405280156108115781602001602082028036833780820191505090505b507f0f00000000000000000000000000000000000000000000000000000000000000959493929190965096509650965096509650965090919293949596565b8273ffffffffffffffffffffffffffffffffffffffff166323b872dd3330856040518463ffffffff1660e01b815260040161088d93929190612256565b6020604051808303816000875af11580156108ac573d6000803e3d6000fd5b505050506040513d601f19601f820116820180604052508101906108d0919061215a565b61090f576040517f08c379a000000000000000000000000000000000000000000000000000000000815260040161090690612345565b60405180910390fd5b6040518060c0016040528060045481526020013373ffffffffffffffffffffffffffffffffffffffff1681526020018473ffffffffffffffffffffffffffffffffffffffff168152602001838152602001828152602001600115158152506003600060045481526020019081526020016000206000820151816000015560208201518160010160006101000a81548173ffffffffffffffffffffffffffffffffffffffff021916908373ffffffffffffffffffffffffffffffffffffffff16021790555060408201518160020160006101000a81548173ffffffffffffffffffffffffffffffffffffffff021916908373ffffffffffffffffffffffffffffffffffffffff160217905550606082015181600301556080820151816004015560a08201518160050160006101000a81548160ff0219169083151502179055509050503373ffffffffffffffffffffffffffffffffffffffff166004547f424b3284a7958bb7965c27ca0b2a8b30ce2a56ba954533df15e6bded1b608ed7858585604051610a9e93929190612365565b60405180910390a360046000815480929190610ab99061239c565b9190505550505050565b60056020528060005260406000206000915090505481565b60008060009054906101000a900473ffffffffffffffffffffffffffffffffffffffff16905090565b60045481565b6000610b168383610ef2565b610b55576040517f08c379a0000000000000000000000000000000000000000000000000000000008152600401610b4c9061200d565b60405180910390fd5b6001905092915050565b60036020528060005260406000206000915090508060000154908060010160009054906101000a900473ffffffffffffffffffffffffffffffffffffffff16908060020160009054906101000a900473ffffffffffffffffffffffffffffffffffffffff16908060030154908060040154908060050160009054906101000a900460ff16905086565b6060600060045467ffffffffffffffff811115610c0857610c07611820565b5b604051908082528060200260200182016040528015610c4157816020015b610c2e611757565b815260200190600190039081610c265790505b5090506000805b600454811015610db8576003600082815260200190815260200160002060050160009054906101000a900460ff1615610dab57600360008281526020019081526020016000206040518060c0016040529081600082015481526020016001820160009054906101000a900473ffffffffffffffffffffffffffffffffffffffff1673ffffffffffffffffffffffffffffffffffffffff1673ffffffffffffffffffffffffffffffffffffffff1681526020016002820160009054906101000a900473ffffffffffffffffffffffffffffffffffffffff1673ffffffffffffffffffffffffffffffffffffffff1673ffffffffffffffffffffffffffffffffffffffff16815260200160038201548152602001600482015481526020016005820160009054906101000a900460ff161515151581525050838381518110610d9157610d906123e4565b5b60200260200101819052508180610da79061239c565b9250505b8080600101915050610c48565b5060008167ffffffffffffffff811115610dd557610dd4611820565b5b604051908082528060200260200182016040528015610e0e57816020015b610dfb611757565b815260200190600190039081610df35790505b50905060005b82811015610e6257838181518110610e2f57610e2e6123e4565b5b6020026020010151828281518110610e4a57610e496123e4565b5b60200260200101819052508080600101915050610e14565b5080935050505090565b610e74610f92565b600073ffffffffffffffffffffffffffffffffffffffff168173ffffffffffffffffffffffffffffffffffffffff1603610ee65760006040517f1e4fbdf7000000000000000000000000000000000000000000000000000000008152600401610edd9190611d1c565b60405180910390fd5b610eef81611019565b50565b600080610f467f93b9ee68d59779989af380b4a3a710890893468b597ef26691ac33ce8ca1dd3385604051602001610f2b929190612413565b60405160208183030381529060405280519060200120611153565b90508373ffffffffffffffffffffffffffffffffffffffff16610f72848361116d90919063ffffffff16565b73ffffffffffffffffffffffffffffffffffffffff161491505092915050565b610f9a611199565b73ffffffffffffffffffffffffffffffffffffffff16610fb8610adb565b73ffffffffffffffffffffffffffffffffffffffff161461101757610fdb611199565b6040517f118cdaa700000000000000000000000000000000000000000000000000000000815260040161100e9190611d1c565b60405180910390fd5b565b60008060009054906101000a900473ffffffffffffffffffffffffffffffffffffffff169050816000806101000a81548173ffffffffffffffffffffffffffffffffffffffff021916908373ffffffffffffffffffffffffffffffffffffffff1602179055508173ffffffffffffffffffffffffffffffffffffffff168173ffffffffffffffffffffffffffffffffffffffff167f8be0079c531659141344cd1fd0a4f28419497f9722a3daafe3b4186f6b6457e060405160405180910390a35050565b606061111360017f00000000000000000000000000000000000000000000000000000000000000006111a190919063ffffffff16565b905090565b606061114e60027f00000000000000000000000000000000000000000000000000000000000000006111a190919063ffffffff16565b905090565b6000611166611160611251565b83611308565b9050919050565b60008060008061117d8686611349565b92509250925061118d82826113a5565b82935050505092915050565b600033905090565b606060ff60001b83146111be576111b783611509565b905061124b565b8180546111ca9061246b565b80601f01602080910402602001604051908101604052809291908181526020018280546111f69061246b565b80156112435780601f1061121857610100808354040283529160200191611243565b820191906000526020600020905b81548152906001019060200180831161122657829003601f168201915b505050505090505b92915050565b60007f000000000000000000000000000000000000000000000000000000000000000073ffffffffffffffffffffffffffffffffffffffff163073ffffffffffffffffffffffffffffffffffffffff161480156112cd57507f000000000000000000000000000000000000000000000000000000000000000046145b156112fa577f00000000000000000000000000000000000000000000000000000000000000009050611305565b61130261157d565b90505b90565b60006040517f190100000000000000000000000000000000000000000000000000000000000081528360028201528260228201526042812091505092915050565b6000806000604184510361138e5760008060006020870151925060408701519150606087015160001a905061138088828585611613565b95509550955050505061139e565b60006002855160001b9250925092505b9250925092565b600060038111156113b9576113b861249c565b5b8260038111156113cc576113cb61249c565b5b031561150557600160038111156113e6576113e561249c565b5b8260038111156113f9576113f861249c565b5b03611430576040517ff645eedf00000000000000000000000000000000000000000000000000000000815260040160405180910390fd5b600260038111156114445761144361249c565b5b8260038111156114575761145661249c565b5b0361149c578060001c6040517ffce698f70000000000000000000000000000000000000000000000000000000081526004016114939190611d01565b60405180910390fd5b6003808111156114af576114ae61249c565b5b8260038111156114c2576114c161249c565b5b0361150457806040517fd78bce0c0000000000000000000000000000000000000000000000000000000081526004016114fb91906124cb565b60405180910390fd5b5b5050565b6060600061151683611707565b90506000602067ffffffffffffffff81111561153557611534611820565b5b6040519080825280601f01601f1916602001820160405280156115675781602001600182028036833780820191505090505b5090508181528360208201528092505050919050565b60007f8b73c3c69bb8fe3d512ecc4cf759cc79239f7b179b0ffacaa9a75d522b39400f7f00000000000000000000000000000000000000000000000000000000000000007f000000000000000000000000000000000000000000000000000000000000000046306040516020016115f89594939291906124e6565b60405160208183030381529060405280519060200120905090565b60008060007f7fffffffffffffffffffffffffffffff5d576e7357a4501ddfe92f46681b20a08460001c11156116535760006003859250925092506116fd565b6000600188888888604051600081526020016040526040516116789493929190612555565b6020604051602081039080840390855afa15801561169a573d6000803e3d6000fd5b505050602060405103519050600073ffffffffffffffffffffffffffffffffffffffff168173ffffffffffffffffffffffffffffffffffffffff16036116ee57600060016000801b935093509350506116fd565b8060008060001b935093509350505b9450945094915050565b60008060ff8360001c169050601f81111561174e576040517fb3512b0c00000000000000000000000000000000000000000000000000000000815260040160405180910390fd5b80915050919050565b6040518060c0016040528060008152602001600073ffffffffffffffffffffffffffffffffffffffff168152602001600073ffffffffffffffffffffffffffffffffffffffff16815260200160008152602001600081526020016000151581525090565b6000604051905090565b600080fd5b600080fd5b6000819050919050565b6117e2816117cf565b81146117ed57600080fd5b50565b6000813590506117ff816117d9565b92915050565b600080fd5b600080fd5b6000601f19601f8301169050919050565b7f4e487b7100000000000000000000000000000000000000000000000000000000600052604160045260246000fd5b6118588261180f565b810181811067ffffffffffffffff8211171561187757611876611820565b5b80604052505050565b600061188a6117bb565b9050611896828261184f565b919050565b600067ffffffffffffffff8211156118b6576118b5611820565b5b6118bf8261180f565b9050602081019050919050565b82818337600083830152505050565b60006118ee6118e98461189b565b611880565b90508281526020810184848401111561190a5761190961180a565b5b6119158482856118cc565b509392505050565b600082601f83011261193257611931611805565b5b81356119428482602086016118db565b91505092915050565b60008060408385031215611962576119616117c5565b5b6000611970858286016117f0565b925050602083013567ffffffffffffffff811115611991576119906117ca565b5b61199d8582860161191d565b9150509250929050565b6000602082840312156119bd576119bc6117c5565b5b600082013567ffffffffffffffff8111156119db576119da6117ca565b5b6119e78482850161191d565b91505092915050565b60007fff0000000000000000000000000000000000000000000000000000000000000082169050919050565b611a25816119f0565b82525050565b600081519050919050565b600082825260208201905092915050565b60005b83811015611a65578082015181840152602081019050611a4a565b60008484015250505050565b6000611a7c82611a2b565b611a868185611a36565b9350611a96818560208601611a47565b611a9f8161180f565b840191505092915050565b611ab3816117cf565b82525050565b600073ffffffffffffffffffffffffffffffffffffffff82169050919050565b6000611ae482611ab9565b9050919050565b611af481611ad9565b82525050565b6000819050919050565b611b0d81611afa565b82525050565b600081519050919050565b600082825260208201905092915050565b6000819050602082019050919050565b611b48816117cf565b82525050565b6000611b5a8383611b3f565b60208301905092915050565b6000602082019050919050565b6000611b7e82611b13565b611b888185611b1e565b9350611b9383611b2f565b8060005b83811015611bc4578151611bab8882611b4e565b9750611bb683611b66565b925050600181019050611b97565b5085935050505092915050565b600060e082019050611be6600083018a611a1c565b8181036020830152611bf88189611a71565b90508181036040830152611c0c8188611a71565b9050611c1b6060830187611aaa565b611c286080830186611aeb565b611c3560a0830185611b04565b81810360c0830152611c478184611b73565b905098975050505050505050565b611c5e81611ad9565b8114611c6957600080fd5b50565b600081359050611c7b81611c55565b92915050565b600080600060608486031215611c9a57611c996117c5565b5b6000611ca886828701611c6c565b9350506020611cb9868287016117f0565b9250506040611cca868287016117f0565b9150509250925092565b600060208284031215611cea57611ce96117c5565b5b6000611cf884828501611c6c565b91505092915050565b6000602082019050611d166000830184611aaa565b92915050565b6000602082019050611d316000830184611aeb565b92915050565b60008060408385031215611d4e57611d4d6117c5565b5b6000611d5c85828601611c6c565b925050602083013567ffffffffffffffff811115611d7d57611d7c6117ca565b5b611d898582860161191d565b9150509250929050565b60008115159050919050565b611da881611d93565b82525050565b6000602082019050611dc36000830184611d9f565b92915050565b600060208284031215611ddf57611dde6117c5565b5b6000611ded848285016117f0565b91505092915050565b600060c082019050611e0b6000830189611aaa565b611e186020830188611aeb565b611e256040830187611aeb565b611e326060830186611aaa565b611e3f6080830185611aaa565b611e4c60a0830184611d9f565b979650505050505050565b600081519050919050565b600082825260208201905092915050565b6000819050602082019050919050565b611e8c81611ad9565b82525050565b611e9b81611d93565b82525050565b60c082016000820151611eb76000850182611b3f565b506020820151611eca6020850182611e83565b506040820151611edd6040850182611e83565b506060820151611ef06060850182611b3f565b506080820151611f036080850182611b3f565b5060a0820151611f1660a0850182611e92565b50505050565b6000611f288383611ea1565b60c08301905092915050565b6000602082019050919050565b6000611f4c82611e57565b611f568185611e62565b9350611f6183611e73565b8060005b83811015611f92578151611f798882611f1c565b9750611f8483611f34565b925050600181019050611f65565b5085935050505092915050565b60006020820190508181036000830152611fb98184611f41565b905092915050565b7f496e76616c6964207369676e6174757265000000000000000000000000000000600082015250565b6000611ff7601183611a36565b915061200282611fc1565b602082019050919050565b6000602082019050818103600083015261202681611fea565b9050919050565b7f4c697374696e6720696e61637469766500000000000000000000000000000000600082015250565b6000612063601083611a36565b915061206e8261202d565b602082019050919050565b6000602082019050818103600083015261209281612056565b9050919050565b7f496e73756666696369656e742045746865722073656e74000000000000000000600082015250565b60006120cf601783611a36565b91506120da82612099565b602082019050919050565b600060208201905081810360008301526120fe816120c2565b9050919050565b600060408201905061211a6000830185611aeb565b6121276020830184611aaa565b9392505050565b61213781611d93565b811461214257600080fd5b50565b6000815190506121548161212e565b92915050565b6000602082840312156121705761216f6117c5565b5b600061217e84828501612145565b91505092915050565b7f546f6b656e207472616e73666572206661696c65640000000000000000000000600082015250565b60006121bd601583611a36565b91506121c882612187565b602082019050919050565b600060208201905081810360008301526121ec816121b0565b9050919050565b7f4e487b7100000000000000000000000000000000000000000000000000000000600052601160045260246000fd5b600061222d826117cf565b9150612238836117cf565b92508282019050808211156122505761224f6121f3565b5b92915050565b600060608201905061226b6000830186611aeb565b6122786020830185611aeb565b6122856040830184611aaa565b949350505050565b7f4e6f2066756e647320746f207769746864726177000000000000000000000000600082015250565b60006122c3601483611a36565b91506122ce8261228d565b602082019050919050565b600060208201905081810360008301526122f2816122b6565b9050919050565b7f5472616e73666572206661696c65640000000000000000000000000000000000600082015250565b600061232f600f83611a36565b915061233a826122f9565b602082019050919050565b6000602082019050818103600083015261235e81612322565b9050919050565b600060608201905061237a6000830186611aeb565b6123876020830185611aaa565b6123946040830184611aaa565b949350505050565b60006123a7826117cf565b91507fffffffffffffffffffffffffffffffffffffffffffffffffffffffffffffffff82036123d9576123d86121f3565b5b600182019050919050565b7f4e487b7100000000000000000000000000000000000000000000000000000000600052603260045260246000fd5b60006040820190506124286000830185611b04565b6124356020830184611aeb565b9392505050565b7f4e487b7100000000000000000000000000000000000000000000000000000000600052602260045260246000fd5b6000600282049050600182168061248357607f821691505b6020821081036124965761249561243c565b5b50919050565b7f4e487b7100000000000000000000000000000000000000000000000000000000600052602160045260246000fd5b60006020820190506124e06000830184611b04565b92915050565b600060a0820190506124fb6000830188611b04565b6125086020830187611b04565b6125156040830186611b04565b6125226060830185611aaa565b61252f6080830184611aeb565b9695505050505050565b600060ff82169050919050565b61254f81612539565b82525050565b600060808201905061256a6000830187611b04565b6125776020830186612546565b6125846040830185611b04565b6125916060830184611b04565b9594505050505056fea26469706673582212204545128b1d2fa83ee6c81944a4bb58887aa3c511621016f3ddfbf01551d5d5d164736f6c634300081c0033",
  "linkReferences": {},
  "deployedLinkReferences": {}
}